{
  "contractName": "LandRegistry",
  "abi": [
    {
      "inputs": [],
      "stateMutability": "nonpayable",
      "type": "constructor"
    },
    {
      "inputs": [
        {
          "internalType": "uint256",
          "name": "",
          "type": "uint256"
        }
      ],
      "name": "land",
      "outputs": [
        {
          "internalType": "address payable",
          "name": "id",
          "type": "address"
        },
        {
          "internalType": "string",
          "name": "ipfsHash",
          "type": "string"
        },
        {
          "internalType": "string",
          "name": "laddress",
          "type": "string"
        },
        {
          "internalType": "uint256",
          "name": "lamount",
          "type": "uint256"
        },
        {
          "internalType": "uint256",
          "name": "key",
          "type": "uint256"
        },
        {
          "internalType": "string",
          "name": "isGovtApproved",
          "type": "string"
        },
        {
          "internalType": "string",
          "name": "isAvailable",
          "type": "string"
        },
        {
          "internalType": "address",
          "name": "requester",
          "type": "address"
        },
        {
          "internalType": "enum LandRegistry.reqStatus",
          "name": "requestStatus",
          "type": "uint8"
        }
      ],
      "stateMutability": "view",
      "type": "function"
    },
    {
      "inputs": [
        {
          "internalType": "address",
          "name": "",
          "type": "address"
        }
      ],
      "name": "users",
      "outputs": [
        {
          "internalType": "address",
          "name": "userid",
          "type": "address"
        },
        {
          "internalType": "string",
          "name": "uname",
          "type": "string"
        },
        {
          "internalType": "uint256",
          "name": "ucontact",
          "type": "uint256"
        },
        {
          "internalType": "string",
          "name": "uemail",
          "type": "string"
        },
        {
          "internalType": "uint256",
          "name": "upostalCode",
          "type": "uint256"
        },
        {
          "internalType": "string",
          "name": "city",
          "type": "string"
        },
        {
          "internalType": "bool",
          "name": "exist",
          "type": "bool"
        }
      ],
      "stateMutability": "view",
      "type": "function"
    },
    {
      "inputs": [
        {
          "internalType": "address",
          "name": "uid",
          "type": "address"
        },
        {
          "internalType": "string",
          "name": "_uname",
          "type": "string"
        },
        {
          "internalType": "uint256",
          "name": "_ucontact",
          "type": "uint256"
        },
        {
          "internalType": "string",
          "name": "_uemail",
          "type": "string"
        },
        {
          "internalType": "uint256",
          "name": "_ucode",
          "type": "uint256"
        },
        {
          "internalType": "string",
          "name": "_ucity",
          "type": "string"
        }
      ],
      "name": "addUser",
      "outputs": [
        {
          "internalType": "bool",
          "name": "",
          "type": "bool"
        }
      ],
      "stateMutability": "nonpayable",
      "type": "function"
    },
    {
      "inputs": [
        {
          "internalType": "address",
          "name": "uid",
          "type": "address"
        }
      ],
      "name": "getUser",
      "outputs": [
        {
          "internalType": "address",
          "name": "",
          "type": "address"
        },
        {
          "internalType": "string",
          "name": "",
          "type": "string"
        },
        {
          "internalType": "uint256",
          "name": "",
          "type": "uint256"
        },
        {
          "internalType": "string",
          "name": "",
          "type": "string"
        },
        {
          "internalType": "uint256",
          "name": "",
          "type": "uint256"
        },
        {
          "internalType": "string",
          "name": "",
          "type": "string"
        },
        {
          "internalType": "bool",
          "name": "",
          "type": "bool"
        }
      ],
      "stateMutability": "view",
      "type": "function"
    },
    {
      "inputs": [
        {
          "internalType": "address payable",
          "name": "_id",
          "type": "address"
        },
        {
          "internalType": "string",
          "name": "_ipfsHash",
          "type": "string"
        },
        {
          "internalType": "string",
          "name": "_laddress",
          "type": "string"
        },
        {
          "internalType": "uint256",
          "name": "_lamount",
          "type": "uint256"
        },
        {
          "internalType": "uint256",
          "name": "_key",
          "type": "uint256"
        },
        {
          "internalType": "string",
          "name": "status",
          "type": "string"
        },
        {
          "internalType": "string",
          "name": "_isAvailable",
          "type": "string"
        }
      ],
      "name": "Registration",
      "outputs": [
        {
          "internalType": "bool",
          "name": "",
          "type": "bool"
        }
      ],
      "stateMutability": "nonpayable",
      "type": "function"
    },
    {
      "inputs": [
        {
          "internalType": "string",
          "name": "_laddress",
          "type": "string"
        },
        {
          "internalType": "string",
          "name": "_lamount",
          "type": "string"
        }
      ],
      "name": "computeId",
      "outputs": [
        {
          "internalType": "uint256",
          "name": "",
          "type": "uint256"
        }
      ],
      "stateMutability": "view",
      "type": "function"
    },
    {
      "inputs": [],
      "name": "viewAssets",
      "outputs": [
        {
          "internalType": "uint256[]",
          "name": "",
          "type": "uint256[]"
        }
      ],
      "stateMutability": "view",
      "type": "function"
    },
    {
      "inputs": [],
      "name": "Assets",
      "outputs": [
        {
          "internalType": "uint256[]",
          "name": "",
          "type": "uint256[]"
        }
      ],
      "stateMutability": "view",
      "type": "function"
    },
    {
      "inputs": [
        {
          "internalType": "uint256",
          "name": "id",
          "type": "uint256"
        }
      ],
      "name": "landInfoOwner",
      "outputs": [
        {
          "internalType": "address payable",
          "name": "",
          "type": "address"
        },
        {
          "internalType": "string",
          "name": "",
          "type": "string"
        },
        {
          "internalType": "uint256",
          "name": "",
          "type": "uint256"
        },
        {
          "internalType": "string",
          "name": "",
          "type": "string"
        },
        {
          "internalType": "string",
          "name": "",
          "type": "string"
        },
        {
          "internalType": "address",
          "name": "",
          "type": "address"
        },
        {
          "internalType": "enum LandRegistry.reqStatus",
          "name": "",
          "type": "uint8"
        }
      ],
      "stateMutability": "view",
      "type": "function"
    },
    {
      "inputs": [
        {
          "internalType": "uint256",
          "name": "_id",
          "type": "uint256"
        },
        {
          "internalType": "string",
          "name": "status",
          "type": "string"
        },
        {
          "internalType": "string",
          "name": "_isAvailable",
          "type": "string"
        }
      ],
      "name": "govtStatus",
      "outputs": [
        {
          "internalType": "bool",
          "name": "",
          "type": "bool"
        }
      ],
      "stateMutability": "nonpayable",
      "type": "function"
    },
    {
      "inputs": [
        {
          "internalType": "uint256",
          "name": "property",
          "type": "uint256"
        }
      ],
      "name": "makeAvailable",
      "outputs": [],
      "stateMutability": "nonpayable",
      "type": "function"
    },
    {
      "inputs": [
        {
          "internalType": "uint256",
          "name": "id",
          "type": "uint256"
        }
      ],
      "name": "requstToLandOwner",
      "outputs": [],
      "stateMutability": "nonpayable",
      "type": "function"
    },
    {
      "inputs": [
        {
          "internalType": "uint256",
          "name": "property",
          "type": "uint256"
        },
        {
          "internalType": "enum LandRegistry.reqStatus",
          "name": "status",
          "type": "uint8"
        }
      ],
      "name": "processRequest",
      "outputs": [],
      "stateMutability": "nonpayable",
      "type": "function"
    },
    {
      "inputs": [
        {
          "internalType": "uint256",
          "name": "amount",
          "type": "uint256"
        }
      ],
      "name": "calculateStampDuty",
      "outputs": [
        {
          "internalType": "uint256",
          "name": "",
          "type": "uint256"
        }
      ],
      "stateMutability": "pure",
      "type": "function"
    },
    {
      "inputs": [
        {
          "internalType": "uint256",
          "name": "property",
          "type": "uint256"
        }
      ],
      "name": "buyProperty",
      "outputs": [],
      "stateMutability": "payable",
      "type": "function"
    },
    {
      "inputs": [
        {
          "internalType": "uint256",
          "name": "id",
          "type": "uint256"
        },
        {
          "internalType": "address",
          "name": "userAddress",
          "type": "address"
        }
      ],
      "name": "findId",
      "outputs": [
        {
          "internalType": "uint256",
          "name": "",
          "type": "uint256"
        }
      ],
      "stateMutability": "view",
      "type": "function"
    }
  ],
  "bytecode": "0x608060405234801561001057600080fd5b5033600260006101000a81548173ffffffffffffffffffffffffffffffffffffffff021916908373ffffffffffffffffffffffffffffffffffffffff160217905550612fdc806100616000396000f3fe6080604052600436106100f35760003560e01c80636fa830a61161008a578063ae32a32511610059578063ae32a325146103a7578063baa39e05146103d2578063f2c7027f146103fb578063fdb10f5014610438576100f3565b80636fa830a6146102c6578063861e4656146102e2578063a27664ee14610327578063a87430ba14610364576100f3565b8063621fdbb7116100c6578063621fdbb7146101e0578063644f73a61461021d5780636c5ed9391461025a5780636f77926b14610283576100f3565b80630d2d5dca146100f85780630e435f08146101235780633e40e2961461016057806355d619521461019d575b600080fd5b34801561010457600080fd5b5061010d610461565b60405161011a9190612aa6565b60405180910390f35b34801561012f57600080fd5b5061014a6004803603810190610145919061243c565b6104f9565b6040516101579190612ac8565b60405180910390f35b34801561016c57600080fd5b506101876004803603810190610182919061260b565b6107c5565b6040516101949190612ae3565b60405180910390f35b3480156101a957600080fd5b506101c460048036038101906101bf9190612677565b61080c565b6040516101d7979695949392919061299e565b60405180910390f35b3480156101ec57600080fd5b506102076004803603810190610202919061253a565b610ac0565b6040516102149190612ac8565b60405180910390f35b34801561022957600080fd5b50610244600480360381019061023f9190612677565b610c93565b6040516102519190612ae3565b60405180910390f35b34801561026657600080fd5b50610281600480360381019061027c9190612677565b610cba565b005b34801561028f57600080fd5b506102aa60048036038101906102a59190612413565b610dd7565b6040516102bd9796959493929190612a22565b60405180910390f35b6102e060048036038101906102db9190612677565b6111fc565b005b3480156102ee57600080fd5b5061030960048036038101906103049190612677565b611666565b60405161031e999897969594939291906128f5565b60405180910390f35b34801561033357600080fd5b5061034e600480360381019061034991906126a0565b611921565b60405161035b9190612ae3565b60405180910390f35b34801561037057600080fd5b5061038b60048036038101906103869190612413565b611a29565b60405161039e9796959493929190612a22565b60405180910390f35b3480156103b357600080fd5b506103bc611c30565b6040516103c99190612aa6565b60405180910390f35b3480156103de57600080fd5b506103f960048036038101906103f49190612677565b611c88565b005b34801561040757600080fd5b50610422600480360381019061041d9190612718565b611d59565b60405161042f9190612ac8565b60405180910390f35b34801561044457600080fd5b5061045f600480360381019061045a91906126dc565b611dbc565b005b6060600360003373ffffffffffffffffffffffffffffffffffffffff1673ffffffffffffffffffffffffffffffffffffffff1681526020019081526020016000206000018054806020026020016040519081016040528092919081815260200182805480156104ef57602002820191906000526020600020905b8154815260200190600101908083116104db575b5050505050905090565b60006040518061012001604052808973ffffffffffffffffffffffffffffffffffffffff168152602001888152602001878152602001868152602001858152602001848152602001838152602001600073ffffffffffffffffffffffffffffffffffffffff1681526020016000600381111561059e577f4e487b7100000000000000000000000000000000000000000000000000000000600052602160045260246000fd5b8152506005600086815260200190815260200160002060008201518160000160006101000a81548173ffffffffffffffffffffffffffffffffffffffff021916908373ffffffffffffffffffffffffffffffffffffffff16021790555060208201518160010190805190602001906106179291906122b4565b5060408201518160020190805190602001906106349291906122b4565b50606082015181600301556080820151816004015560a08201518160050190805190602001906106659291906122b4565b5060c08201518160060190805190602001906106829291906122b4565b5060e08201518160070160006101000a81548173ffffffffffffffffffffffffffffffffffffffff021916908373ffffffffffffffffffffffffffffffffffffffff1602179055506101008201518160070160146101000a81548160ff0219169083600381111561071c577f4e487b7100000000000000000000000000000000000000000000000000000000600052602160045260246000fd5b0217905550905050600360008973ffffffffffffffffffffffffffffffffffffffff1673ffffffffffffffffffffffffffffffffffffffff168152602001908152602001600020600001849080600181540180825580915050600190039060005260206000200160009091909190915055600184908060018154018082558091505060019003906000526020600020016000909190919091505560019050979650505050505050565b60006509184e72a00083836040516020016107e19291906128d1565b6040516020818303038152906040528051906020012060001c6108049190612e10565b905092915050565b6000606060006060806000806005600089815260200190815260200160002060000160009054906101000a900473ffffffffffffffffffffffffffffffffffffffff16600560008a8152602001908152602001600020600101600560008b815260200190815260200160002060030154600560008c8152602001908152602001600020600501600560008d8152602001908152602001600020600601600560008e815260200190815260200160002060070160009054906101000a900473ffffffffffffffffffffffffffffffffffffffff16600560008f815260200190815260200160002060070160149054906101000a900460ff1685805461090f90612d95565b80601f016020809104026020016040519081016040528092919081815260200182805461093b90612d95565b80156109885780601f1061095d57610100808354040283529160200191610988565b820191906000526020600020905b81548152906001019060200180831161096b57829003601f168201915b5050505050955083805461099b90612d95565b80601f01602080910402602001604051908101604052809291908181526020018280546109c790612d95565b8015610a145780601f106109e957610100808354040283529160200191610a14565b820191906000526020600020905b8154815290600101906020018083116109f757829003601f168201915b50505050509350828054610a2790612d95565b80601f0160208091040260200160405190810160405280929190818152602001828054610a5390612d95565b8015610aa05780601f10610a7557610100808354040283529160200191610aa0565b820191906000526020600020905b815481529060010190602001808311610a8357829003601f168201915b505050505092509650965096509650965096509650919395979092949650565b60006040518060e001604052808873ffffffffffffffffffffffffffffffffffffffff16815260200187815260200186815260200185815260200184815260200183815260200160011515815250600460008973ffffffffffffffffffffffffffffffffffffffff1673ffffffffffffffffffffffffffffffffffffffff16815260200190815260200160002060008201518160000160006101000a81548173ffffffffffffffffffffffffffffffffffffffff021916908373ffffffffffffffffffffffffffffffffffffffff1602179055506020820151816001019080519060200190610bb09291906122b4565b50604082015181600201556060820151816003019080519060200190610bd79291906122b4565b506080820151816004015560a0820151816005019080519060200190610bfe9291906122b4565b5060c08201518160060160006101000a81548160ff0219169083151502179055509050506000879080600181540180825580915050600190039060005260206000200160009091909190916101000a81548173ffffffffffffffffffffffffffffffffffffffff021916908373ffffffffffffffffffffffffffffffffffffffff160217905550600190509695505050505050565b6000806007905060648184610ca89190612c46565b610cb29190612c15565b915050919050565b336005600083815260200190815260200160002060070160006101000a81548173ffffffffffffffffffffffffffffffffffffffff021916908373ffffffffffffffffffffffffffffffffffffffff1602179055506040518060400160405280600781526020017f50656e64696e6700000000000000000000000000000000000000000000000000815250600560008381526020019081526020016000206006019080519060200190610d6e9291906122b4565b5060016005600083815260200190815260200160002060070160146101000a81548160ff02191690836003811115610dcf577f4e487b7100000000000000000000000000000000000000000000000000000000600052602160045260246000fd5b021790555050565b6000606060006060600060606000600460008973ffffffffffffffffffffffffffffffffffffffff1673ffffffffffffffffffffffffffffffffffffffff16815260200190815260200160002060060160009054906101000a900460ff16156111f057600460008973ffffffffffffffffffffffffffffffffffffffff1673ffffffffffffffffffffffffffffffffffffffff16815260200190815260200160002060000160009054906101000a900473ffffffffffffffffffffffffffffffffffffffff16600460008a73ffffffffffffffffffffffffffffffffffffffff1673ffffffffffffffffffffffffffffffffffffffff168152602001908152602001600020600101600460008b73ffffffffffffffffffffffffffffffffffffffff1673ffffffffffffffffffffffffffffffffffffffff16815260200190815260200160002060020154600460008c73ffffffffffffffffffffffffffffffffffffffff1673ffffffffffffffffffffffffffffffffffffffff168152602001908152602001600020600301600460008d73ffffffffffffffffffffffffffffffffffffffff1673ffffffffffffffffffffffffffffffffffffffff16815260200190815260200160002060040154600460008e73ffffffffffffffffffffffffffffffffffffffff1673ffffffffffffffffffffffffffffffffffffffff168152602001908152602001600020600501600460008f73ffffffffffffffffffffffffffffffffffffffff1673ffffffffffffffffffffffffffffffffffffffff16815260200190815260200160002060060160009054906101000a900460ff1685805461104590612d95565b80601f016020809104026020016040519081016040528092919081815260200182805461107190612d95565b80156110be5780601f10611093576101008083540402835291602001916110be565b820191906000526020600020905b8154815290600101906020018083116110a157829003601f168201915b505050505095508380546110d190612d95565b80601f01602080910402602001604051908101604052809291908181526020018280546110fd90612d95565b801561114a5780601f1061111f5761010080835404028352916020019161114a565b820191906000526020600020905b81548152906001019060200180831161112d57829003601f168201915b5050505050935081805461115d90612d95565b80601f016020809104026020016040519081016040528092919081815260200182805461118990612d95565b80156111d65780601f106111ab576101008083540402835291602001916111d6565b820191906000526020600020905b8154815290600101906020018083116111b957829003601f168201915b5050505050915096509650965096509650965096506111f1565b5b919395979092949650565b600380811115611235577f4e487b7100000000000000000000000000000000000000000000000000000000600052602160045260246000fd5b6005600083815260200190815260200160002060070160149054906101000a900460ff166003811115611291577f4e487b7100000000000000000000000000000000000000000000000000000000600052602160045260246000fd5b1461129b57600080fd5b670de0b6b3a764000060056000838152602001908152602001600020600301546112c59190612c46565b34146112d057600080fd5b6000611304670de0b6b3a764000060056000858152602001908152602001600020600301546112ff9190612c46565b610c93565b9050734335bdd13cb56abf4542b841a0e7ca9fb7f4cbfc73ffffffffffffffffffffffffffffffffffffffff166108fc829081150290604051600060405180830381858888f19350505050158015611360573d6000803e3d6000fd5b506005600083815260200190815260200160002060000160009054906101000a900473ffffffffffffffffffffffffffffffffffffffff1673ffffffffffffffffffffffffffffffffffffffff166108fc82346113bd9190612ca0565b9081150290604051600060405180830381858888f193505050501580156113e8573d6000803e3d6000fd5b506114296005600084815260200190815260200160002060000160009054906101000a900473ffffffffffffffffffffffffffffffffffffffff1683612087565b336005600084815260200190815260200160002060000160006101000a81548173ffffffffffffffffffffffffffffffffffffffff021916908373ffffffffffffffffffffffffffffffffffffffff1602179055506040518060400160405280600c81526020017f4e6f7420417070726f76656400000000000000000000000000000000000000008152506005600084815260200190815260200160002060050190805190602001906114dd9291906122b4565b506040518060400160405280601d81526020017f4e6f742079657420617070726f7665642062792074686520676f76742e00000081525060056000848152602001908152602001600020600601908051906020019061153d9291906122b4565b5060006005600084815260200190815260200160002060070160006101000a81548173ffffffffffffffffffffffffffffffffffffffff021916908373ffffffffffffffffffffffffffffffffffffffff16021790555060006005600084815260200190815260200160002060070160146101000a81548160ff021916908360038111156115f4577f4e487b7100000000000000000000000000000000000000000000000000000000600052602160045260246000fd5b0217905550600360003373ffffffffffffffffffffffffffffffffffffffff1673ffffffffffffffffffffffffffffffffffffffff1681526020019081526020016000206000018290806001815401808255809150506001900390600052602060002001600090919091909150555050565b60056020528060005260406000206000915090508060000160009054906101000a900473ffffffffffffffffffffffffffffffffffffffff16908060010180546116af90612d95565b80601f01602080910402602001604051908101604052809291908181526020018280546116db90612d95565b80156117285780601f106116fd57610100808354040283529160200191611728565b820191906000526020600020905b81548152906001019060200180831161170b57829003601f168201915b50505050509080600201805461173d90612d95565b80601f016020809104026020016040519081016040528092919081815260200182805461176990612d95565b80156117b65780601f1061178b576101008083540402835291602001916117b6565b820191906000526020600020905b81548152906001019060200180831161179957829003601f168201915b5050505050908060030154908060040154908060050180546117d790612d95565b80601f016020809104026020016040519081016040528092919081815260200182805461180390612d95565b80156118505780601f1061182557610100808354040283529160200191611850565b820191906000526020600020905b81548152906001019060200180831161183357829003601f168201915b50505050509080600601805461186590612d95565b80601f016020809104026020016040519081016040528092919081815260200182805461189190612d95565b80156118de5780601f106118b3576101008083540402835291602001916118de565b820191906000526020600020905b8154815290600101906020018083116118c157829003601f168201915b5050505050908060070160009054906101000a900473ffffffffffffffffffffffffffffffffffffffff16908060070160149054906101000a900460ff16905089565b600080600090505b600360008473ffffffffffffffffffffffffffffffffffffffff1673ffffffffffffffffffffffffffffffffffffffff16815260200190815260200160002060000180549050811015611a1e5783600360008573ffffffffffffffffffffffffffffffffffffffff1673ffffffffffffffffffffffffffffffffffffffff16815260200190815260200160002060000182815481106119f1577f4e487b7100000000000000000000000000000000000000000000000000000000600052603260045260246000fd5b90600052602060002001541415611a0b5780915050611a23565b8080611a1690612dc7565b915050611929565b809150505b92915050565b60046020528060005260406000206000915090508060000160009054906101000a900473ffffffffffffffffffffffffffffffffffffffff1690806001018054611a7290612d95565b80601f0160208091040260200160405190810160405280929190818152602001828054611a9e90612d95565b8015611aeb5780601f10611ac057610100808354040283529160200191611aeb565b820191906000526020600020905b815481529060010190602001808311611ace57829003601f168201915b505050505090806002015490806003018054611b0690612d95565b80601f0160208091040260200160405190810160405280929190818152602001828054611b3290612d95565b8015611b7f5780601f10611b5457610100808354040283529160200191611b7f565b820191906000526020600020905b815481529060010190602001808311611b6257829003601f168201915b505050505090806004015490806005018054611b9a90612d95565b80601f0160208091040260200160405190810160405280929190818152602001828054611bc690612d95565b8015611c135780601f10611be857610100808354040283529160200191611c13565b820191906000526020600020905b815481529060010190602001808311611bf657829003601f168201915b5050505050908060060160009054906101000a900460ff16905087565b60606001805480602002602001604051908101604052809291908181526020018280548015611c7e57602002820191906000526020600020905b815481526020019060010190808311611c6a575b5050505050905090565b3373ffffffffffffffffffffffffffffffffffffffff166005600083815260200190815260200160002060000160009054906101000a900473ffffffffffffffffffffffffffffffffffffffff1673ffffffffffffffffffffffffffffffffffffffff1614611cf657600080fd5b6040518060400160405280600981526020017f417661696c61626c650000000000000000000000000000000000000000000000815250600560008381526020019081526020016000206006019080519060200190611d559291906122b4565b5050565b600082600560008681526020019081526020016000206005019080519060200190611d859291906122b4565b5081600560008681526020019081526020016000206006019080519060200190611db09291906122b4565b50600190509392505050565b3373ffffffffffffffffffffffffffffffffffffffff166005600084815260200190815260200160002060000160009054906101000a900473ffffffffffffffffffffffffffffffffffffffff1673ffffffffffffffffffffffffffffffffffffffff1614611e2a57600080fd5b806005600084815260200190815260200160002060070160146101000a81548160ff02191690836003811115611e89577f4e487b7100000000000000000000000000000000000000000000000000000000600052602160045260246000fd5b02179055506040518060400160405280600881526020017f417070726f766564000000000000000000000000000000000000000000000000815250600560008481526020019081526020016000206006019080519060200190611eed9291906122b4565b5060026003811115611f28577f4e487b7100000000000000000000000000000000000000000000000000000000600052602160045260246000fd5b816003811115611f61577f4e487b7100000000000000000000000000000000000000000000000000000000600052602160045260246000fd5b14156120835760006005600084815260200190815260200160002060070160006101000a81548173ffffffffffffffffffffffffffffffffffffffff021916908373ffffffffffffffffffffffffffffffffffffffff16021790555060006005600084815260200190815260200160002060070160146101000a81548160ff0219169083600381111561201d577f4e487b7100000000000000000000000000000000000000000000000000000000600052602160045260246000fd5b02179055506040518060400160405280600981526020017f417661696c61626c6500000000000000000000000000000000000000000000008152506005600084815260200190815260200160002060060190805190602001906120819291906122b4565b505b5050565b60006120938284611921565b905060008190505b6001600360008673ffffffffffffffffffffffffffffffffffffffff1673ffffffffffffffffffffffffffffffffffffffff168152602001908152602001600020600001805490506120ed9190612ca0565b81101561222057600360008573ffffffffffffffffffffffffffffffffffffffff1673ffffffffffffffffffffffffffffffffffffffff1681526020019081526020016000206000016001826121439190612bbf565b8154811061217a577f4e487b7100000000000000000000000000000000000000000000000000000000600052603260045260246000fd5b9060005260206000200154600360008673ffffffffffffffffffffffffffffffffffffffff1673ffffffffffffffffffffffffffffffffffffffff16815260200190815260200160002060000182815481106121ff577f4e487b7100000000000000000000000000000000000000000000000000000000600052603260045260246000fd5b9060005260206000200181905550808061221890612dc7565b91505061209b565b50600360008473ffffffffffffffffffffffffffffffffffffffff1673ffffffffffffffffffffffffffffffffffffffff168152602001908152602001600020600001805480612299577f4e487b7100000000000000000000000000000000000000000000000000000000600052603160045260246000fd5b60019003818190600052602060002001600090559055505050565b8280546122c090612d95565b90600052602060002090601f0160209004810192826122e25760008555612329565b82601f106122fb57805160ff1916838001178555612329565b82800160010185558215612329579182015b8281111561232857825182559160200191906001019061230d565b5b509050612336919061233a565b5090565b5b8082111561235357600081600090555060010161233b565b5090565b600061236a61236584612b2f565b612afe565b90508281526020810184848401111561238257600080fd5b61238d848285612d53565b509392505050565b6000813590506123a481612f51565b92915050565b6000813590506123b981612f68565b92915050565b6000813590506123ce81612f7f565b92915050565b600082601f8301126123e557600080fd5b81356123f5848260208601612357565b91505092915050565b60008135905061240d81612f8f565b92915050565b60006020828403121561242557600080fd5b600061243384828501612395565b91505092915050565b600080600080600080600060e0888a03121561245757600080fd5b60006124658a828b016123aa565b975050602088013567ffffffffffffffff81111561248257600080fd5b61248e8a828b016123d4565b965050604088013567ffffffffffffffff8111156124ab57600080fd5b6124b78a828b016123d4565b95505060606124c88a828b016123fe565b94505060806124d98a828b016123fe565b93505060a088013567ffffffffffffffff8111156124f657600080fd5b6125028a828b016123d4565b92505060c088013567ffffffffffffffff81111561251f57600080fd5b61252b8a828b016123d4565b91505092959891949750929550565b60008060008060008060c0878903121561255357600080fd5b600061256189828a01612395565b965050602087013567ffffffffffffffff81111561257e57600080fd5b61258a89828a016123d4565b955050604061259b89828a016123fe565b945050606087013567ffffffffffffffff8111156125b857600080fd5b6125c489828a016123d4565b93505060806125d589828a016123fe565b92505060a087013567ffffffffffffffff8111156125f257600080fd5b6125fe89828a016123d4565b9150509295509295509295565b6000806040838503121561261e57600080fd5b600083013567ffffffffffffffff81111561263857600080fd5b612644858286016123d4565b925050602083013567ffffffffffffffff81111561266157600080fd5b61266d858286016123d4565b9150509250929050565b60006020828403121561268957600080fd5b6000612697848285016123fe565b91505092915050565b600080604083850312156126b357600080fd5b60006126c1858286016123fe565b92505060206126d285828601612395565b9150509250929050565b600080604083850312156126ef57600080fd5b60006126fd858286016123fe565b925050602061270e858286016123bf565b9150509250929050565b60008060006060848603121561272d57600080fd5b600061273b868287016123fe565b935050602084013567ffffffffffffffff81111561275857600080fd5b612764868287016123d4565b925050604084013567ffffffffffffffff81111561278157600080fd5b61278d868287016123d4565b9150509250925092565b60006127a383836128b3565b60208301905092915050565b6127b881612ce6565b82525050565b6127c781612cd4565b82525050565b60006127d882612b6f565b6127e28185612b92565b93506127ed83612b5f565b8060005b8381101561281e5781516128058882612797565b975061281083612b85565b9250506001810190506127f1565b5085935050505092915050565b61283481612cf8565b82525050565b61284381612d41565b82525050565b600061285482612b7a565b61285e8185612ba3565b935061286e818560208601612d62565b61287781612f2c565b840191505092915050565b600061288d82612b7a565b6128978185612bb4565b93506128a7818560208601612d62565b80840191505092915050565b6128bc81612d37565b82525050565b6128cb81612d37565b82525050565b60006128dd8285612882565b91506128e98284612882565b91508190509392505050565b60006101208201905061290b600083018c6127af565b818103602083015261291d818b612849565b90508181036040830152612931818a612849565b905061294060608301896128c2565b61294d60808301886128c2565b81810360a083015261295f8187612849565b905081810360c08301526129738186612849565b905061298260e08301856127be565b61299061010083018461283a565b9a9950505050505050505050565b600060e0820190506129b3600083018a6127af565b81810360208301526129c58189612849565b90506129d460408301886128c2565b81810360608301526129e68187612849565b905081810360808301526129fa8186612849565b9050612a0960a08301856127be565b612a1660c083018461283a565b98975050505050505050565b600060e082019050612a37600083018a6127be565b8181036020830152612a498189612849565b9050612a5860408301886128c2565b8181036060830152612a6a8187612849565b9050612a7960808301866128c2565b81810360a0830152612a8b8185612849565b9050612a9a60c083018461282b565b98975050505050505050565b60006020820190508181036000830152612ac081846127cd565b905092915050565b6000602082019050612add600083018461282b565b92915050565b6000602082019050612af860008301846128c2565b92915050565b6000604051905081810181811067ffffffffffffffff82111715612b2557612b24612efd565b5b8060405250919050565b600067ffffffffffffffff821115612b4a57612b49612efd565b5b601f19601f8301169050602081019050919050565b6000819050602082019050919050565b600081519050919050565b600081519050919050565b6000602082019050919050565b600082825260208201905092915050565b600082825260208201905092915050565b600081905092915050565b6000612bca82612d37565b9150612bd583612d37565b9250827fffffffffffffffffffffffffffffffffffffffffffffffffffffffffffffffff03821115612c0a57612c09612e41565b5b828201905092915050565b6000612c2082612d37565b9150612c2b83612d37565b925082612c3b57612c3a612e70565b5b828204905092915050565b6000612c5182612d37565b9150612c5c83612d37565b9250817fffffffffffffffffffffffffffffffffffffffffffffffffffffffffffffffff0483118215151615612c9557612c94612e41565b5b828202905092915050565b6000612cab82612d37565b9150612cb683612d37565b925082821015612cc957612cc8612e41565b5b828203905092915050565b6000612cdf82612d17565b9050919050565b6000612cf182612d17565b9050919050565b60008115159050919050565b6000819050612d1282612f3d565b919050565b600073ffffffffffffffffffffffffffffffffffffffff82169050919050565b6000819050919050565b6000612d4c82612d04565b9050919050565b82818337600083830152505050565b60005b83811015612d80578082015181840152602081019050612d65565b83811115612d8f576000848401525b50505050565b60006002820490506001821680612dad57607f821691505b60208210811415612dc157612dc0612ece565b5b50919050565b6000612dd282612d37565b91507fffffffffffffffffffffffffffffffffffffffffffffffffffffffffffffffff821415612e0557612e04612e41565b5b600182019050919050565b6000612e1b82612d37565b9150612e2683612d37565b925082612e3657612e35612e70565b5b828206905092915050565b7f4e487b7100000000000000000000000000000000000000000000000000000000600052601160045260246000fd5b7f4e487b7100000000000000000000000000000000000000000000000000000000600052601260045260246000fd5b7f4e487b7100000000000000000000000000000000000000000000000000000000600052602160045260246000fd5b7f4e487b7100000000000000000000000000000000000000000000000000000000600052602260045260246000fd5b7f4e487b7100000000000000000000000000000000000000000000000000000000600052604160045260246000fd5b6000601f19601f8301169050919050565b60048110612f4e57612f4d612e9f565b5b50565b612f5a81612cd4565b8114612f6557600080fd5b50565b612f7181612ce6565b8114612f7c57600080fd5b50565b60048110612f8c57600080fd5b50565b612f9881612d37565b8114612fa357600080fd5b5056fea2646970667358221220a7febbfb861f8d39eba27e7d5996a76413bff0594be267e53b0adf01f4efa0f864736f6c63430008000033",
  "immutableReferences": {},
  "source": "// SPDX-License-Identifier: MIT\npragma solidity ^0.8.0;\n\n//  Updated government wallet address\naddress payable constant govtAddress = payable(0x4335BdD13cB56abf4542b841a0e7ca9fb7f4CBFc);\n\ncontract LandRegistry {\n    struct Task {\n        uint256 id;\n        string content;\n        bool completed;\n    }\n    struct user {\n        address userid;\n        string uname;\n        uint256 ucontact;\n        string uemail;\n        uint256 upostalCode;\n        string city;\n        bool exist;\n    }\n    struct landDetails {\n        address payable id;\n        string ipfsHash;\n        string laddress;\n        uint256 lamount;\n        uint256 key;\n        string isGovtApproved;\n        string isAvailable;\n        address requester;\n        reqStatus requestStatus;\n    }\n\n    address[] userarr;\n    uint256[] assets;\n    address owner;\n    enum reqStatus {Default, Pending, Rejected, Approved}\n\n    constructor() {\n        owner = msg.sender;\n    }\n\n    struct profiles {\n        uint256[] assetList;\n    }\n\n    mapping(address => profiles) profile;\n    mapping(address => user) public users;\n    mapping(uint256 => landDetails) public land;\n\n    function addUser(\n        address uid,\n        string memory _uname,\n        uint256 _ucontact,\n        string memory _uemail,\n        uint256 _ucode,\n        string memory _ucity\n    ) public returns (bool) {\n        users[uid] = user(\n            uid,\n            _uname,\n            _ucontact,\n            _uemail,\n            _ucode,\n            _ucity,\n            true\n        );\n        userarr.push(uid);\n        return true;\n    }\n\n    function getUser(address uid)\n        public\n        view\n        returns (\n            address,\n            string memory,\n            uint256,\n            string memory,\n            uint256,\n            string memory,\n            bool\n        )\n    {\n        if (users[uid].exist)\n            return (\n                users[uid].userid,\n                users[uid].uname,\n                users[uid].ucontact,\n                users[uid].uemail,\n                users[uid].upostalCode,\n                users[uid].city,\n                users[uid].exist\n            );\n    }\n\n    function Registration(\n        address payable _id,\n        string memory _ipfsHash,\n        string memory _laddress,\n        uint256 _lamount,\n        uint256 _key,\n        string memory status,\n        string memory _isAvailable\n    ) public returns (bool) {\n        land[_key] = landDetails(\n            _id,\n            _ipfsHash,\n            _laddress,\n            _lamount,\n            _key,\n            status,\n            _isAvailable,\n            address(0),\n            reqStatus.Default\n        );\n        profile[_id].assetList.push(_key);\n        assets.push(_key);\n        return true;\n    }\n\n    function computeId(string memory _laddress, string memory _lamount)\n        public\n        view\n        returns (uint256)\n    {\n        return\n            uint256(keccak256(abi.encodePacked(_laddress, _lamount))) % 10000000000000;\n    }\n\n    function viewAssets() public view returns (uint256[] memory) {\n        return (profile[msg.sender].assetList);\n    }\n\n    function Assets() public view returns (uint256[] memory) {\n        return assets;\n    }\n\n    function landInfoOwner(uint256 id)\n        public\n        view\n        returns (\n            address payable,\n            string memory,\n            uint256,\n            string memory,\n            string memory,\n            address,\n            reqStatus\n        )\n    {\n        return (\n            land[id].id,\n            land[id].ipfsHash,\n            land[id].lamount,\n            land[id].isGovtApproved,\n            land[id].isAvailable,\n            land[id].requester,\n            land[id].requestStatus\n        );\n    }\n\n    function govtStatus(\n        uint256 _id,\n        string memory status,\n        string memory _isAvailable\n    ) public returns (bool) {\n        land[_id].isGovtApproved = status;\n        land[_id].isAvailable = _isAvailable;\n        return true;\n    }\n\n    function makeAvailable(uint256 property) public {\n        require(land[property].id == msg.sender);\n        land[property].isAvailable = \"Available\";\n    }\n\n    function requstToLandOwner(uint256 id) public {\n        land[id].requester = msg.sender;\n        land[id].isAvailable = \"Pending\";\n        land[id].requestStatus = reqStatus.Pending;\n    }\n\n    function processRequest(uint256 property, reqStatus status) public {\n        require(land[property].id == msg.sender);\n        land[property].requestStatus = status;\n        land[property].isAvailable = \"Approved\";\n        if (status == reqStatus.Rejected) {\n            land[property].requester = address(0);\n            land[property].requestStatus = reqStatus.Default;\n            land[property].isAvailable = \"Available\";\n        }\n    }\n\n    function calculateStampDuty(uint256 amount) public pure returns (uint256) {\n        uint256 stampDutyPercentage = 7; //  7% stamp duty\n        return (amount * stampDutyPercentage) / 100;\n    }\n\n    function buyProperty(uint256 property) public payable {\n        require(land[property].requestStatus == reqStatus.Approved);\n        require(msg.value == (land[property].lamount * 1 ether));\n\n        uint256 stampDuty = calculateStampDuty(land[property].lamount * 1 ether);\n        \n        govtAddress.transfer(stampDuty);\n        land[property].id.transfer(msg.value - stampDuty);\n\n        removeOwnership(land[property].id, property);\n        land[property].id = payable(msg.sender);\n        land[property].isGovtApproved = \"Not Approved\";\n        land[property].isAvailable = \"Not yet approved by the govt.\";\n        land[property].requester = address(0);\n        land[property].requestStatus = reqStatus.Default;\n        profile[msg.sender].assetList.push(property);\n    }\n\n    function removeOwnership(address previousOwner, uint256 id) private {\n        uint256 index = findId(id, previousOwner);\n        \n        for (uint256 i = index; i < profile[previousOwner].assetList.length - 1; i++) {\n            profile[previousOwner].assetList[i] = profile[previousOwner].assetList[i + 1];\n        }\n        \n        profile[previousOwner].assetList.pop();\n    }\n\n    function findId(uint256 id, address userAddress) public view returns (uint256) {\n        uint256 i;\n        for (i = 0; i < profile[userAddress].assetList.length; i++) {\n            if (profile[userAddress].assetList[i] == id) return i;\n        }\n        return i;\n    }\n}\n",
  "sourcePath": "D:\\Projects\\LandMine\\src\\contracts\\LandRegistry.sol",
  "compiler": {
    "name": "solc",
    "version": "0.8.0+commit.c7dfd78e.Emscripten.clang"
  },
  "schemaVersion": "3.4.16",
  "updatedAt": "2025-04-11T11:33:43.785Z",
  "devdoc": {
    "kind": "dev",
    "methods": {},
    "version": 1
  },
  "userdoc": {
    "kind": "user",
    "methods": {},
    "version": 1
  }
}