{
  "contractName": "LandRegistry",
  "abi": [
    {
      "inputs": [],
      "stateMutability": "nonpayable",
      "type": "constructor"
    },
    {
      "inputs": [
        {
          "internalType": "uint256",
          "name": "",
          "type": "uint256"
        }
      ],
      "name": "land",
      "outputs": [
        {
          "internalType": "address payable",
          "name": "id",
          "type": "address"
        },
        {
          "internalType": "string",
          "name": "ipfsHash",
          "type": "string"
        },
        {
          "internalType": "string",
          "name": "laddress",
          "type": "string"
        },
        {
          "internalType": "uint256",
          "name": "lamount",
          "type": "uint256"
        },
        {
          "internalType": "uint256",
          "name": "key",
          "type": "uint256"
        },
        {
          "internalType": "string",
          "name": "isGovtApproved",
          "type": "string"
        },
        {
          "internalType": "string",
          "name": "isAvailable",
          "type": "string"
        },
        {
          "internalType": "address",
          "name": "requester",
          "type": "address"
        },
        {
          "internalType": "enum LandRegistry.reqStatus",
          "name": "requestStatus",
          "type": "uint8"
        }
      ],
      "stateMutability": "view",
      "type": "function",
      "constant": true
    },
    {
      "inputs": [
        {
          "internalType": "address",
          "name": "",
          "type": "address"
        }
      ],
      "name": "users",
      "outputs": [
        {
          "internalType": "address",
          "name": "userid",
          "type": "address"
        },
        {
          "internalType": "string",
          "name": "uname",
          "type": "string"
        },
        {
          "internalType": "uint256",
          "name": "ucontact",
          "type": "uint256"
        },
        {
          "internalType": "string",
          "name": "uemail",
          "type": "string"
        },
        {
          "internalType": "uint256",
          "name": "upostalCode",
          "type": "uint256"
        },
        {
          "internalType": "string",
          "name": "city",
          "type": "string"
        },
        {
          "internalType": "bool",
          "name": "exist",
          "type": "bool"
        }
      ],
      "stateMutability": "view",
      "type": "function",
      "constant": true
    },
    {
      "inputs": [
        {
          "internalType": "address",
          "name": "uid",
          "type": "address"
        },
        {
          "internalType": "string",
          "name": "_uname",
          "type": "string"
        },
        {
          "internalType": "uint256",
          "name": "_ucontact",
          "type": "uint256"
        },
        {
          "internalType": "string",
          "name": "_uemail",
          "type": "string"
        },
        {
          "internalType": "uint256",
          "name": "_ucode",
          "type": "uint256"
        },
        {
          "internalType": "string",
          "name": "_ucity",
          "type": "string"
        }
      ],
      "name": "addUser",
      "outputs": [
        {
          "internalType": "bool",
          "name": "",
          "type": "bool"
        }
      ],
      "stateMutability": "nonpayable",
      "type": "function"
    },
    {
      "inputs": [
        {
          "internalType": "address",
          "name": "uid",
          "type": "address"
        }
      ],
      "name": "getUser",
      "outputs": [
        {
          "internalType": "address",
          "name": "",
          "type": "address"
        },
        {
          "internalType": "string",
          "name": "",
          "type": "string"
        },
        {
          "internalType": "uint256",
          "name": "",
          "type": "uint256"
        },
        {
          "internalType": "string",
          "name": "",
          "type": "string"
        },
        {
          "internalType": "uint256",
          "name": "",
          "type": "uint256"
        },
        {
          "internalType": "string",
          "name": "",
          "type": "string"
        },
        {
          "internalType": "bool",
          "name": "",
          "type": "bool"
        }
      ],
      "stateMutability": "view",
      "type": "function",
      "constant": true
    },
    {
      "inputs": [
        {
          "internalType": "address payable",
          "name": "_id",
          "type": "address"
        },
        {
          "internalType": "string",
          "name": "_ipfsHash",
          "type": "string"
        },
        {
          "internalType": "string",
          "name": "_laddress",
          "type": "string"
        },
        {
          "internalType": "uint256",
          "name": "_lamount",
          "type": "uint256"
        },
        {
          "internalType": "uint256",
          "name": "_key",
          "type": "uint256"
        },
        {
          "internalType": "string",
          "name": "status",
          "type": "string"
        },
        {
          "internalType": "string",
          "name": "_isAvailable",
          "type": "string"
        }
      ],
      "name": "Registration",
      "outputs": [
        {
          "internalType": "bool",
          "name": "",
          "type": "bool"
        }
      ],
      "stateMutability": "nonpayable",
      "type": "function"
    },
    {
      "inputs": [
        {
          "internalType": "string",
          "name": "_laddress",
          "type": "string"
        },
        {
          "internalType": "string",
          "name": "_lamount",
          "type": "string"
        }
      ],
      "name": "computeId",
      "outputs": [
        {
          "internalType": "uint256",
          "name": "",
          "type": "uint256"
        }
      ],
      "stateMutability": "view",
      "type": "function",
      "constant": true
    },
    {
      "inputs": [],
      "name": "viewAssets",
      "outputs": [
        {
          "internalType": "uint256[]",
          "name": "",
          "type": "uint256[]"
        }
      ],
      "stateMutability": "view",
      "type": "function",
      "constant": true
    },
    {
      "inputs": [],
      "name": "Assets",
      "outputs": [
        {
          "internalType": "uint256[]",
          "name": "",
          "type": "uint256[]"
        }
      ],
      "stateMutability": "view",
      "type": "function",
      "constant": true
    },
    {
      "inputs": [
        {
          "internalType": "uint256",
          "name": "id",
          "type": "uint256"
        }
      ],
      "name": "landInfoOwner",
      "outputs": [
        {
          "internalType": "address payable",
          "name": "",
          "type": "address"
        },
        {
          "internalType": "string",
          "name": "",
          "type": "string"
        },
        {
          "internalType": "uint256",
          "name": "",
          "type": "uint256"
        },
        {
          "internalType": "string",
          "name": "",
          "type": "string"
        },
        {
          "internalType": "string",
          "name": "",
          "type": "string"
        },
        {
          "internalType": "address",
          "name": "",
          "type": "address"
        },
        {
          "internalType": "enum LandRegistry.reqStatus",
          "name": "",
          "type": "uint8"
        }
      ],
      "stateMutability": "view",
      "type": "function",
      "constant": true
    },
    {
      "inputs": [
        {
          "internalType": "uint256",
          "name": "_id",
          "type": "uint256"
        },
        {
          "internalType": "string",
          "name": "status",
          "type": "string"
        },
        {
          "internalType": "string",
          "name": "_isAvailable",
          "type": "string"
        }
      ],
      "name": "govtStatus",
      "outputs": [
        {
          "internalType": "bool",
          "name": "",
          "type": "bool"
        }
      ],
      "stateMutability": "nonpayable",
      "type": "function"
    },
    {
      "inputs": [
        {
          "internalType": "uint256",
          "name": "property",
          "type": "uint256"
        }
      ],
      "name": "makeAvailable",
      "outputs": [],
      "stateMutability": "nonpayable",
      "type": "function"
    },
    {
      "inputs": [
        {
          "internalType": "uint256",
          "name": "id",
          "type": "uint256"
        }
      ],
      "name": "requstToLandOwner",
      "outputs": [],
      "stateMutability": "nonpayable",
      "type": "function"
    },
    {
      "inputs": [
        {
          "internalType": "uint256",
          "name": "property",
          "type": "uint256"
        },
        {
          "internalType": "enum LandRegistry.reqStatus",
          "name": "status",
          "type": "uint8"
        }
      ],
      "name": "processRequest",
      "outputs": [],
      "stateMutability": "nonpayable",
      "type": "function"
    },
    {
      "inputs": [
        {
          "internalType": "uint256",
          "name": "amount",
          "type": "uint256"
        }
      ],
      "name": "calculateStampDuty",
      "outputs": [
        {
          "internalType": "uint256",
          "name": "",
          "type": "uint256"
        }
      ],
      "stateMutability": "pure",
      "type": "function",
      "constant": true
    },
    {
      "inputs": [
        {
          "internalType": "uint256",
          "name": "property",
          "type": "uint256"
        }
      ],
      "name": "buyProperty",
      "outputs": [],
      "stateMutability": "payable",
      "type": "function",
      "payable": true
    },
    {
      "inputs": [
        {
          "internalType": "uint256",
          "name": "id",
          "type": "uint256"
        },
        {
          "internalType": "address",
          "name": "userAddress",
          "type": "address"
        }
      ],
      "name": "findId",
      "outputs": [
        {
          "internalType": "uint256",
          "name": "",
          "type": "uint256"
        }
      ],
      "stateMutability": "view",
      "type": "function",
      "constant": true
    }
  ],
  "bytecode": "0x608060405234801561001057600080fd5b5033600260006101000a81548173ffffffffffffffffffffffffffffffffffffffff021916908373ffffffffffffffffffffffffffffffffffffffff160217905550612ff2806100616000396000f3fe6080604052600436106100f35760003560e01c80636fa830a61161008a578063ae32a32511610059578063ae32a325146103a7578063baa39e05146103d2578063f2c7027f146103fb578063fdb10f5014610438576100f3565b80636fa830a6146102c6578063861e4656146102e2578063a27664ee14610327578063a87430ba14610364576100f3565b8063621fdbb7116100c6578063621fdbb7146101e0578063644f73a61461021d5780636c5ed9391461025a5780636f77926b14610283576100f3565b80630d2d5dca146100f85780630e435f08146101235780633e40e2961461016057806355d619521461019d575b600080fd5b34801561010457600080fd5b5061010d610461565b60405161011a9190612abc565b60405180910390f35b34801561012f57600080fd5b5061014a60048036038101906101459190612452565b6104f9565b6040516101579190612ade565b60405180910390f35b34801561016c57600080fd5b5061018760048036038101906101829190612621565b6107c5565b6040516101949190612af9565b60405180910390f35b3480156101a957600080fd5b506101c460048036038101906101bf919061268d565b61080c565b6040516101d797969594939291906129b4565b60405180910390f35b3480156101ec57600080fd5b5061020760048036038101906102029190612550565b610ac0565b6040516102149190612ade565b60405180910390f35b34801561022957600080fd5b50610244600480360381019061023f919061268d565b610c93565b6040516102519190612af9565b60405180910390f35b34801561026657600080fd5b50610281600480360381019061027c919061268d565b610cba565b005b34801561028f57600080fd5b506102aa60048036038101906102a59190612429565b610dd7565b6040516102bd9796959493929190612a38565b60405180910390f35b6102e060048036038101906102db919061268d565b6111fc565b005b3480156102ee57600080fd5b506103096004803603810190610304919061268d565b61167c565b60405161031e9998979695949392919061290b565b60405180910390f35b34801561033357600080fd5b5061034e600480360381019061034991906126b6565b611937565b60405161035b9190612af9565b60405180910390f35b34801561037057600080fd5b5061038b60048036038101906103869190612429565b611a3f565b60405161039e9796959493929190612a38565b60405180910390f35b3480156103b357600080fd5b506103bc611c46565b6040516103c99190612abc565b60405180910390f35b3480156103de57600080fd5b506103f960048036038101906103f4919061268d565b611c9e565b005b34801561040757600080fd5b50610422600480360381019061041d919061272e565b611d6f565b60405161042f9190612ade565b60405180910390f35b34801561044457600080fd5b5061045f600480360381019061045a91906126f2565b611dd2565b005b6060600360003373ffffffffffffffffffffffffffffffffffffffff1673ffffffffffffffffffffffffffffffffffffffff1681526020019081526020016000206000018054806020026020016040519081016040528092919081815260200182805480156104ef57602002820191906000526020600020905b8154815260200190600101908083116104db575b5050505050905090565b60006040518061012001604052808973ffffffffffffffffffffffffffffffffffffffff168152602001888152602001878152602001868152602001858152602001848152602001838152602001600073ffffffffffffffffffffffffffffffffffffffff1681526020016000600381111561059e577f4e487b7100000000000000000000000000000000000000000000000000000000600052602160045260246000fd5b8152506005600086815260200190815260200160002060008201518160000160006101000a81548173ffffffffffffffffffffffffffffffffffffffff021916908373ffffffffffffffffffffffffffffffffffffffff16021790555060208201518160010190805190602001906106179291906122ca565b5060408201518160020190805190602001906106349291906122ca565b50606082015181600301556080820151816004015560a08201518160050190805190602001906106659291906122ca565b5060c08201518160060190805190602001906106829291906122ca565b5060e08201518160070160006101000a81548173ffffffffffffffffffffffffffffffffffffffff021916908373ffffffffffffffffffffffffffffffffffffffff1602179055506101008201518160070160146101000a81548160ff0219169083600381111561071c577f4e487b7100000000000000000000000000000000000000000000000000000000600052602160045260246000fd5b0217905550905050600360008973ffffffffffffffffffffffffffffffffffffffff1673ffffffffffffffffffffffffffffffffffffffff168152602001908152602001600020600001849080600181540180825580915050600190039060005260206000200160009091909190915055600184908060018154018082558091505060019003906000526020600020016000909190919091505560019050979650505050505050565b60006509184e72a00083836040516020016107e19291906128e7565b6040516020818303038152906040528051906020012060001c6108049190612e26565b905092915050565b6000606060006060806000806005600089815260200190815260200160002060000160009054906101000a900473ffffffffffffffffffffffffffffffffffffffff16600560008a8152602001908152602001600020600101600560008b815260200190815260200160002060030154600560008c8152602001908152602001600020600501600560008d8152602001908152602001600020600601600560008e815260200190815260200160002060070160009054906101000a900473ffffffffffffffffffffffffffffffffffffffff16600560008f815260200190815260200160002060070160149054906101000a900460ff1685805461090f90612dab565b80601f016020809104026020016040519081016040528092919081815260200182805461093b90612dab565b80156109885780601f1061095d57610100808354040283529160200191610988565b820191906000526020600020905b81548152906001019060200180831161096b57829003601f168201915b5050505050955083805461099b90612dab565b80601f01602080910402602001604051908101604052809291908181526020018280546109c790612dab565b8015610a145780601f106109e957610100808354040283529160200191610a14565b820191906000526020600020905b8154815290600101906020018083116109f757829003601f168201915b50505050509350828054610a2790612dab565b80601f0160208091040260200160405190810160405280929190818152602001828054610a5390612dab565b8015610aa05780601f10610a7557610100808354040283529160200191610aa0565b820191906000526020600020905b815481529060010190602001808311610a8357829003601f168201915b505050505092509650965096509650965096509650919395979092949650565b60006040518060e001604052808873ffffffffffffffffffffffffffffffffffffffff16815260200187815260200186815260200185815260200184815260200183815260200160011515815250600460008973ffffffffffffffffffffffffffffffffffffffff1673ffffffffffffffffffffffffffffffffffffffff16815260200190815260200160002060008201518160000160006101000a81548173ffffffffffffffffffffffffffffffffffffffff021916908373ffffffffffffffffffffffffffffffffffffffff1602179055506020820151816001019080519060200190610bb09291906122ca565b50604082015181600201556060820151816003019080519060200190610bd79291906122ca565b506080820151816004015560a0820151816005019080519060200190610bfe9291906122ca565b5060c08201518160060160006101000a81548160ff0219169083151502179055509050506000879080600181540180825580915050600190039060005260206000200160009091909190916101000a81548173ffffffffffffffffffffffffffffffffffffffff021916908373ffffffffffffffffffffffffffffffffffffffff160217905550600190509695505050505050565b6000806005905060648184610ca89190612c5c565b610cb29190612c2b565b915050919050565b336005600083815260200190815260200160002060070160006101000a81548173ffffffffffffffffffffffffffffffffffffffff021916908373ffffffffffffffffffffffffffffffffffffffff1602179055506040518060400160405280600781526020017f50656e64696e6700000000000000000000000000000000000000000000000000815250600560008381526020019081526020016000206006019080519060200190610d6e9291906122ca565b5060016005600083815260200190815260200160002060070160146101000a81548160ff02191690836003811115610dcf577f4e487b7100000000000000000000000000000000000000000000000000000000600052602160045260246000fd5b021790555050565b6000606060006060600060606000600460008973ffffffffffffffffffffffffffffffffffffffff1673ffffffffffffffffffffffffffffffffffffffff16815260200190815260200160002060060160009054906101000a900460ff16156111f057600460008973ffffffffffffffffffffffffffffffffffffffff1673ffffffffffffffffffffffffffffffffffffffff16815260200190815260200160002060000160009054906101000a900473ffffffffffffffffffffffffffffffffffffffff16600460008a73ffffffffffffffffffffffffffffffffffffffff1673ffffffffffffffffffffffffffffffffffffffff168152602001908152602001600020600101600460008b73ffffffffffffffffffffffffffffffffffffffff1673ffffffffffffffffffffffffffffffffffffffff16815260200190815260200160002060020154600460008c73ffffffffffffffffffffffffffffffffffffffff1673ffffffffffffffffffffffffffffffffffffffff168152602001908152602001600020600301600460008d73ffffffffffffffffffffffffffffffffffffffff1673ffffffffffffffffffffffffffffffffffffffff16815260200190815260200160002060040154600460008e73ffffffffffffffffffffffffffffffffffffffff1673ffffffffffffffffffffffffffffffffffffffff168152602001908152602001600020600501600460008f73ffffffffffffffffffffffffffffffffffffffff1673ffffffffffffffffffffffffffffffffffffffff16815260200190815260200160002060060160009054906101000a900460ff1685805461104590612dab565b80601f016020809104026020016040519081016040528092919081815260200182805461107190612dab565b80156110be5780601f10611093576101008083540402835291602001916110be565b820191906000526020600020905b8154815290600101906020018083116110a157829003601f168201915b505050505095508380546110d190612dab565b80601f01602080910402602001604051908101604052809291908181526020018280546110fd90612dab565b801561114a5780601f1061111f5761010080835404028352916020019161114a565b820191906000526020600020905b81548152906001019060200180831161112d57829003601f168201915b5050505050935081805461115d90612dab565b80601f016020809104026020016040519081016040528092919081815260200182805461118990612dab565b80156111d65780601f106111ab576101008083540402835291602001916111d6565b820191906000526020600020905b8154815290600101906020018083116111b957829003601f168201915b5050505050915096509650965096509650965096506111f1565b5b919395979092949650565b600380811115611235577f4e487b7100000000000000000000000000000000000000000000000000000000600052602160045260246000fd5b6005600083815260200190815260200160002060070160149054906101000a900460ff166003811115611291577f4e487b7100000000000000000000000000000000000000000000000000000000600052602160045260246000fd5b1461129b57600080fd5b670de0b6b3a764000060056000838152602001908152602001600020600301546112c59190612c5c565b34146112d057600080fd5b60006112f16005600084815260200190815260200160002060030154610c93565b905073383e286ea48e1626605e349c6a72c11e10cc46f173ffffffffffffffffffffffffffffffffffffffff166108fc829081150290604051600060405180830381858888f1935050505015801561134d573d6000803e3d6000fd5b506005600083815260200190815260200160002060000160009054906101000a900473ffffffffffffffffffffffffffffffffffffffff1673ffffffffffffffffffffffffffffffffffffffff166108fc82670de0b6b3a764000060056000878152602001908152602001600020600301546113c99190612c5c565b6113d39190612cb6565b9081150290604051600060405180830381858888f193505050501580156113fe573d6000803e3d6000fd5b5061143f6005600084815260200190815260200160002060000160009054906101000a900473ffffffffffffffffffffffffffffffffffffffff168361209d565b336005600084815260200190815260200160002060000160006101000a81548173ffffffffffffffffffffffffffffffffffffffff021916908373ffffffffffffffffffffffffffffffffffffffff1602179055506040518060400160405280600c81526020017f4e6f7420417070726f76656400000000000000000000000000000000000000008152506005600084815260200190815260200160002060050190805190602001906114f39291906122ca565b506040518060400160405280601d81526020017f4e6f742079657420617070726f7665642062792074686520676f76742e0000008152506005600084815260200190815260200160002060060190805190602001906115539291906122ca565b5060006005600084815260200190815260200160002060070160006101000a81548173ffffffffffffffffffffffffffffffffffffffff021916908373ffffffffffffffffffffffffffffffffffffffff16021790555060006005600084815260200190815260200160002060070160146101000a81548160ff0219169083600381111561160a577f4e487b7100000000000000000000000000000000000000000000000000000000600052602160045260246000fd5b0217905550600360003373ffffffffffffffffffffffffffffffffffffffff1673ffffffffffffffffffffffffffffffffffffffff1681526020019081526020016000206000018290806001815401808255809150506001900390600052602060002001600090919091909150555050565b60056020528060005260406000206000915090508060000160009054906101000a900473ffffffffffffffffffffffffffffffffffffffff16908060010180546116c590612dab565b80601f01602080910402602001604051908101604052809291908181526020018280546116f190612dab565b801561173e5780601f106117135761010080835404028352916020019161173e565b820191906000526020600020905b81548152906001019060200180831161172157829003601f168201915b50505050509080600201805461175390612dab565b80601f016020809104026020016040519081016040528092919081815260200182805461177f90612dab565b80156117cc5780601f106117a1576101008083540402835291602001916117cc565b820191906000526020600020905b8154815290600101906020018083116117af57829003601f168201915b5050505050908060030154908060040154908060050180546117ed90612dab565b80601f016020809104026020016040519081016040528092919081815260200182805461181990612dab565b80156118665780601f1061183b57610100808354040283529160200191611866565b820191906000526020600020905b81548152906001019060200180831161184957829003601f168201915b50505050509080600601805461187b90612dab565b80601f01602080910402602001604051908101604052809291908181526020018280546118a790612dab565b80156118f45780601f106118c9576101008083540402835291602001916118f4565b820191906000526020600020905b8154815290600101906020018083116118d757829003601f168201915b5050505050908060070160009054906101000a900473ffffffffffffffffffffffffffffffffffffffff16908060070160149054906101000a900460ff16905089565b600080600090505b600360008473ffffffffffffffffffffffffffffffffffffffff1673ffffffffffffffffffffffffffffffffffffffff16815260200190815260200160002060000180549050811015611a345783600360008573ffffffffffffffffffffffffffffffffffffffff1673ffffffffffffffffffffffffffffffffffffffff1681526020019081526020016000206000018281548110611a07577f4e487b7100000000000000000000000000000000000000000000000000000000600052603260045260246000fd5b90600052602060002001541415611a215780915050611a39565b8080611a2c90612ddd565b91505061193f565b809150505b92915050565b60046020528060005260406000206000915090508060000160009054906101000a900473ffffffffffffffffffffffffffffffffffffffff1690806001018054611a8890612dab565b80601f0160208091040260200160405190810160405280929190818152602001828054611ab490612dab565b8015611b015780601f10611ad657610100808354040283529160200191611b01565b820191906000526020600020905b815481529060010190602001808311611ae457829003601f168201915b505050505090806002015490806003018054611b1c90612dab565b80601f0160208091040260200160405190810160405280929190818152602001828054611b4890612dab565b8015611b955780601f10611b6a57610100808354040283529160200191611b95565b820191906000526020600020905b815481529060010190602001808311611b7857829003601f168201915b505050505090806004015490806005018054611bb090612dab565b80601f0160208091040260200160405190810160405280929190818152602001828054611bdc90612dab565b8015611c295780601f10611bfe57610100808354040283529160200191611c29565b820191906000526020600020905b815481529060010190602001808311611c0c57829003601f168201915b5050505050908060060160009054906101000a900460ff16905087565b60606001805480602002602001604051908101604052809291908181526020018280548015611c9457602002820191906000526020600020905b815481526020019060010190808311611c80575b5050505050905090565b3373ffffffffffffffffffffffffffffffffffffffff166005600083815260200190815260200160002060000160009054906101000a900473ffffffffffffffffffffffffffffffffffffffff1673ffffffffffffffffffffffffffffffffffffffff1614611d0c57600080fd5b6040518060400160405280600981526020017f417661696c61626c650000000000000000000000000000000000000000000000815250600560008381526020019081526020016000206006019080519060200190611d6b9291906122ca565b5050565b600082600560008681526020019081526020016000206005019080519060200190611d9b9291906122ca565b5081600560008681526020019081526020016000206006019080519060200190611dc69291906122ca565b50600190509392505050565b3373ffffffffffffffffffffffffffffffffffffffff166005600084815260200190815260200160002060000160009054906101000a900473ffffffffffffffffffffffffffffffffffffffff1673ffffffffffffffffffffffffffffffffffffffff1614611e4057600080fd5b806005600084815260200190815260200160002060070160146101000a81548160ff02191690836003811115611e9f577f4e487b7100000000000000000000000000000000000000000000000000000000600052602160045260246000fd5b02179055506040518060400160405280600881526020017f417070726f766564000000000000000000000000000000000000000000000000815250600560008481526020019081526020016000206006019080519060200190611f039291906122ca565b5060026003811115611f3e577f4e487b7100000000000000000000000000000000000000000000000000000000600052602160045260246000fd5b816003811115611f77577f4e487b7100000000000000000000000000000000000000000000000000000000600052602160045260246000fd5b14156120995760006005600084815260200190815260200160002060070160006101000a81548173ffffffffffffffffffffffffffffffffffffffff021916908373ffffffffffffffffffffffffffffffffffffffff16021790555060006005600084815260200190815260200160002060070160146101000a81548160ff02191690836003811115612033577f4e487b7100000000000000000000000000000000000000000000000000000000600052602160045260246000fd5b02179055506040518060400160405280600981526020017f417661696c61626c6500000000000000000000000000000000000000000000008152506005600084815260200190815260200160002060060190805190602001906120979291906122ca565b505b5050565b60006120a98284611937565b905060008190505b6001600360008673ffffffffffffffffffffffffffffffffffffffff1673ffffffffffffffffffffffffffffffffffffffff168152602001908152602001600020600001805490506121039190612cb6565b81101561223657600360008573ffffffffffffffffffffffffffffffffffffffff1673ffffffffffffffffffffffffffffffffffffffff1681526020019081526020016000206000016001826121599190612bd5565b81548110612190577f4e487b7100000000000000000000000000000000000000000000000000000000600052603260045260246000fd5b9060005260206000200154600360008673ffffffffffffffffffffffffffffffffffffffff1673ffffffffffffffffffffffffffffffffffffffff1681526020019081526020016000206000018281548110612215577f4e487b7100000000000000000000000000000000000000000000000000000000600052603260045260246000fd5b9060005260206000200181905550808061222e90612ddd565b9150506120b1565b50600360008473ffffffffffffffffffffffffffffffffffffffff1673ffffffffffffffffffffffffffffffffffffffff1681526020019081526020016000206000018054806122af577f4e487b7100000000000000000000000000000000000000000000000000000000600052603160045260246000fd5b60019003818190600052602060002001600090559055505050565b8280546122d690612dab565b90600052602060002090601f0160209004810192826122f8576000855561233f565b82601f1061231157805160ff191683800117855561233f565b8280016001018555821561233f579182015b8281111561233e578251825591602001919060010190612323565b5b50905061234c9190612350565b5090565b5b80821115612369576000816000905550600101612351565b5090565b600061238061237b84612b45565b612b14565b90508281526020810184848401111561239857600080fd5b6123a3848285612d69565b509392505050565b6000813590506123ba81612f67565b92915050565b6000813590506123cf81612f7e565b92915050565b6000813590506123e481612f95565b92915050565b600082601f8301126123fb57600080fd5b813561240b84826020860161236d565b91505092915050565b60008135905061242381612fa5565b92915050565b60006020828403121561243b57600080fd5b6000612449848285016123ab565b91505092915050565b600080600080600080600060e0888a03121561246d57600080fd5b600061247b8a828b016123c0565b975050602088013567ffffffffffffffff81111561249857600080fd5b6124a48a828b016123ea565b965050604088013567ffffffffffffffff8111156124c157600080fd5b6124cd8a828b016123ea565b95505060606124de8a828b01612414565b94505060806124ef8a828b01612414565b93505060a088013567ffffffffffffffff81111561250c57600080fd5b6125188a828b016123ea565b92505060c088013567ffffffffffffffff81111561253557600080fd5b6125418a828b016123ea565b91505092959891949750929550565b60008060008060008060c0878903121561256957600080fd5b600061257789828a016123ab565b965050602087013567ffffffffffffffff81111561259457600080fd5b6125a089828a016123ea565b95505060406125b189828a01612414565b945050606087013567ffffffffffffffff8111156125ce57600080fd5b6125da89828a016123ea565b93505060806125eb89828a01612414565b92505060a087013567ffffffffffffffff81111561260857600080fd5b61261489828a016123ea565b9150509295509295509295565b6000806040838503121561263457600080fd5b600083013567ffffffffffffffff81111561264e57600080fd5b61265a858286016123ea565b925050602083013567ffffffffffffffff81111561267757600080fd5b612683858286016123ea565b9150509250929050565b60006020828403121561269f57600080fd5b60006126ad84828501612414565b91505092915050565b600080604083850312156126c957600080fd5b60006126d785828601612414565b92505060206126e8858286016123ab565b9150509250929050565b6000806040838503121561270557600080fd5b600061271385828601612414565b9250506020612724858286016123d5565b9150509250929050565b60008060006060848603121561274357600080fd5b600061275186828701612414565b935050602084013567ffffffffffffffff81111561276e57600080fd5b61277a868287016123ea565b925050604084013567ffffffffffffffff81111561279757600080fd5b6127a3868287016123ea565b9150509250925092565b60006127b983836128c9565b60208301905092915050565b6127ce81612cfc565b82525050565b6127dd81612cea565b82525050565b60006127ee82612b85565b6127f88185612ba8565b935061280383612b75565b8060005b8381101561283457815161281b88826127ad565b975061282683612b9b565b925050600181019050612807565b5085935050505092915050565b61284a81612d0e565b82525050565b61285981612d57565b82525050565b600061286a82612b90565b6128748185612bb9565b9350612884818560208601612d78565b61288d81612f42565b840191505092915050565b60006128a382612b90565b6128ad8185612bca565b93506128bd818560208601612d78565b80840191505092915050565b6128d281612d4d565b82525050565b6128e181612d4d565b82525050565b60006128f38285612898565b91506128ff8284612898565b91508190509392505050565b600061012082019050612921600083018c6127c5565b8181036020830152612933818b61285f565b90508181036040830152612947818a61285f565b905061295660608301896128d8565b61296360808301886128d8565b81810360a0830152612975818761285f565b905081810360c0830152612989818661285f565b905061299860e08301856127d4565b6129a6610100830184612850565b9a9950505050505050505050565b600060e0820190506129c9600083018a6127c5565b81810360208301526129db818961285f565b90506129ea60408301886128d8565b81810360608301526129fc818761285f565b90508181036080830152612a10818661285f565b9050612a1f60a08301856127d4565b612a2c60c0830184612850565b98975050505050505050565b600060e082019050612a4d600083018a6127d4565b8181036020830152612a5f818961285f565b9050612a6e60408301886128d8565b8181036060830152612a80818761285f565b9050612a8f60808301866128d8565b81810360a0830152612aa1818561285f565b9050612ab060c0830184612841565b98975050505050505050565b60006020820190508181036000830152612ad681846127e3565b905092915050565b6000602082019050612af36000830184612841565b92915050565b6000602082019050612b0e60008301846128d8565b92915050565b6000604051905081810181811067ffffffffffffffff82111715612b3b57612b3a612f13565b5b8060405250919050565b600067ffffffffffffffff821115612b6057612b5f612f13565b5b601f19601f8301169050602081019050919050565b6000819050602082019050919050565b600081519050919050565b600081519050919050565b6000602082019050919050565b600082825260208201905092915050565b600082825260208201905092915050565b600081905092915050565b6000612be082612d4d565b9150612beb83612d4d565b9250827fffffffffffffffffffffffffffffffffffffffffffffffffffffffffffffffff03821115612c2057612c1f612e57565b5b828201905092915050565b6000612c3682612d4d565b9150612c4183612d4d565b925082612c5157612c50612e86565b5b828204905092915050565b6000612c6782612d4d565b9150612c7283612d4d565b9250817fffffffffffffffffffffffffffffffffffffffffffffffffffffffffffffffff0483118215151615612cab57612caa612e57565b5b828202905092915050565b6000612cc182612d4d565b9150612ccc83612d4d565b925082821015612cdf57612cde612e57565b5b828203905092915050565b6000612cf582612d2d565b9050919050565b6000612d0782612d2d565b9050919050565b60008115159050919050565b6000819050612d2882612f53565b919050565b600073ffffffffffffffffffffffffffffffffffffffff82169050919050565b6000819050919050565b6000612d6282612d1a565b9050919050565b82818337600083830152505050565b60005b83811015612d96578082015181840152602081019050612d7b565b83811115612da5576000848401525b50505050565b60006002820490506001821680612dc357607f821691505b60208210811415612dd757612dd6612ee4565b5b50919050565b6000612de882612d4d565b91507fffffffffffffffffffffffffffffffffffffffffffffffffffffffffffffffff821415612e1b57612e1a612e57565b5b600182019050919050565b6000612e3182612d4d565b9150612e3c83612d4d565b925082612e4c57612e4b612e86565b5b828206905092915050565b7f4e487b7100000000000000000000000000000000000000000000000000000000600052601160045260246000fd5b7f4e487b7100000000000000000000000000000000000000000000000000000000600052601260045260246000fd5b7f4e487b7100000000000000000000000000000000000000000000000000000000600052602160045260246000fd5b7f4e487b7100000000000000000000000000000000000000000000000000000000600052602260045260246000fd5b7f4e487b7100000000000000000000000000000000000000000000000000000000600052604160045260246000fd5b6000601f19601f8301169050919050565b60048110612f6457612f63612eb5565b5b50565b612f7081612cea565b8114612f7b57600080fd5b50565b612f8781612cfc565b8114612f9257600080fd5b50565b60048110612fa257600080fd5b50565b612fae81612d4d565b8114612fb957600080fd5b5056fea2646970667358221220fafacd81eec901c8f1add9434ecf0efe4ad2bae7130ab8e277feed5e64f824f964736f6c63430008000033",
  "immutableReferences": {},
  "source": "// SPDX-License-Identifier: MIT\npragma solidity ^0.8.0;\n\naddress payable constant govtAddress = payable(0x383E286EA48E1626605e349C6a72c11e10CC46F1);\n\ncontract LandRegistry {\n    struct Task {\n        uint256 id;\n        string content;\n        bool completed;\n    }\n    struct user {\n        address userid;\n        string uname;\n        uint256 ucontact;\n        string uemail;\n        uint256 upostalCode;\n        string city;\n        bool exist;\n    }\n    struct landDetails {\n        address payable id;\n        string ipfsHash;\n        string laddress;\n        uint256 lamount;\n        uint256 key;\n        string isGovtApproved;\n        string isAvailable;\n        address requester;\n        reqStatus requestStatus;\n    }\n\n    address[] userarr;\n    uint256[] assets;\n    address owner;\n    enum reqStatus {Default, Pending, Rejected, Approved}\n\n    constructor() {\n        owner = msg.sender;\n    }\n\n    struct profiles {\n        uint256[] assetList;\n    }\n\n    mapping(address => profiles) profile;\n    mapping(address => user) public users;\n    mapping(uint256 => landDetails) public land;\n\n    function addUser(\n        address uid,\n        string memory _uname,\n        uint256 _ucontact,\n        string memory _uemail,\n        uint256 _ucode,\n        string memory _ucity\n    ) public returns (bool) {\n        users[uid] = user(\n            uid,\n            _uname,\n            _ucontact,\n            _uemail,\n            _ucode,\n            _ucity,\n            true\n        );\n        userarr.push(uid);\n        return true;\n    }\n\n    function getUser(address uid)\n        public\n        view\n        returns (\n            address,\n            string memory,\n            uint256,\n            string memory,\n            uint256,\n            string memory,\n            bool\n        )\n    {\n        if (users[uid].exist)\n            return (\n                users[uid].userid,\n                users[uid].uname,\n                users[uid].ucontact,\n                users[uid].uemail,\n                users[uid].upostalCode,\n                users[uid].city,\n                users[uid].exist\n            );\n    }\n\n    function Registration(\n        address payable _id,\n        string memory _ipfsHash,\n        string memory _laddress,\n        uint256 _lamount,\n        uint256 _key,\n        string memory status,\n        string memory _isAvailable\n    ) public returns (bool) {\n        land[_key] = landDetails(\n            _id,\n            _ipfsHash,\n            _laddress,\n            _lamount,\n            _key,\n            status,\n            _isAvailable,\n            address(0),\n            reqStatus.Default\n        );\n        profile[_id].assetList.push(_key);\n        assets.push(_key);\n        return true;\n    }\n\n    function computeId(string memory _laddress, string memory _lamount)\n        public\n        view\n        returns (uint256)\n    {\n        return\n            uint256(keccak256(abi.encodePacked(_laddress, _lamount))) % 10000000000000;\n    }\n\n    function viewAssets() public view returns (uint256[] memory) {\n        return (profile[msg.sender].assetList);\n    }\n\n    function Assets() public view returns (uint256[] memory) {\n        return assets;\n    }\n\n    function landInfoOwner(uint256 id)\n        public\n        view\n        returns (\n            address payable,\n            string memory,\n            uint256,\n            string memory,\n            string memory,\n            address,\n            reqStatus\n        )\n    {\n        return (\n            land[id].id,\n            land[id].ipfsHash,\n            land[id].lamount,\n            land[id].isGovtApproved,\n            land[id].isAvailable,\n            land[id].requester,\n            land[id].requestStatus\n        );\n    }\n\n    function govtStatus(\n        uint256 _id,\n        string memory status,\n        string memory _isAvailable\n    ) public returns (bool) {\n        land[_id].isGovtApproved = status;\n        land[_id].isAvailable = _isAvailable;\n        return true;\n    }\n\n    function makeAvailable(uint256 property) public {\n        require(land[property].id == msg.sender);\n        land[property].isAvailable = \"Available\";\n    }\n\n    function requstToLandOwner(uint256 id) public {\n        land[id].requester = msg.sender;\n        land[id].isAvailable = \"Pending\";\n        land[id].requestStatus = reqStatus.Pending;\n    }\n\n    function processRequest(uint256 property, reqStatus status) public {\n        require(land[property].id == msg.sender);\n        land[property].requestStatus = status;\n        land[property].isAvailable = \"Approved\";\n        if (status == reqStatus.Rejected) {\n            land[property].requester = address(0);\n            land[property].requestStatus = reqStatus.Default;\n            land[property].isAvailable = \"Available\";\n        }\n    }\n\n    function calculateStampDuty(uint256 amount) public pure returns (uint256) {\n        uint256 stampDutyPercentage = 5;\n        return (amount * stampDutyPercentage) / 100;\n    }\n\n    function buyProperty(uint256 property) public payable {\n        require(land[property].requestStatus == reqStatus.Approved);\n        require(msg.value == (land[property].lamount * 1000000000000000000));\n\n        uint256 stampDuty = calculateStampDuty(land[property].lamount);\n        \n        govtAddress.transfer(stampDuty);\n        land[property].id.transfer(land[property].lamount * 1000000000000000000 - stampDuty);\n\n        removeOwnership(land[property].id, property);\n        land[property].id = payable(msg.sender);\n        land[property].isGovtApproved = \"Not Approved\";\n        land[property].isAvailable = \"Not yet approved by the govt.\";\n        land[property].requester = address(0);\n        land[property].requestStatus = reqStatus.Default;\n        profile[msg.sender].assetList.push(property);\n    }\n\n    function removeOwnership(address previousOwner, uint256 id) private {\n        uint256 index = findId(id, previousOwner);\n        \n        for (uint256 i = index; i < profile[previousOwner].assetList.length - 1; i++) {\n            profile[previousOwner].assetList[i] = profile[previousOwner].assetList[i + 1];\n        }\n        \n        profile[previousOwner].assetList.pop();\n    }\n\n    function findId(uint256 id, address userAddress) public view returns (uint256) {\n        uint256 i;\n        for (i = 0; i < profile[userAddress].assetList.length; i++) {\n            if (profile[userAddress].assetList[i] == id) return i;\n        }\n        return i;\n    }\n}\n",
  "sourcePath": "D:\\Projects\\Smart-Contract-Based-Land-Registry-System-using-Ethereum-Blockchain\\src\\contracts\\LandRegistry.sol",
  "compiler": {
    "name": "solc",
    "version": "0.8.0+commit.c7dfd78e.Emscripten.clang"
  },
  "schemaVersion": "3.4.16",
  "updatedAt": "2025-04-07T19:38:43.785Z",
  "networkType": "ethereum",
  "devdoc": {
    "kind": "dev",
    "methods": {},
    "version": 1
  },
  "userdoc": {
    "kind": "user",
    "methods": {},
    "version": 1
  }
}