{
  "contractName": "LandRegistry",
  "abi": [
    {
      "inputs": [],
      "stateMutability": "nonpayable",
      "type": "constructor"
    },
    {
      "anonymous": false,
      "inputs": [
        {
          "indexed": false,
          "internalType": "uint256",
          "name": "key",
          "type": "uint256"
        },
        {
          "indexed": false,
          "internalType": "address",
          "name": "owner",
          "type": "address"
        }
      ],
      "name": "LandRegistered",
      "type": "event"
    },
    {
      "inputs": [
        {
          "internalType": "uint256",
          "name": "",
          "type": "uint256"
        }
      ],
      "name": "land",
      "outputs": [
        {
          "internalType": "address payable",
          "name": "id",
          "type": "address"
        },
        {
          "internalType": "string",
          "name": "ipfsHash",
          "type": "string"
        },
        {
          "internalType": "string",
          "name": "laddress",
          "type": "string"
        },
        {
          "internalType": "uint256",
          "name": "lamount",
          "type": "uint256"
        },
        {
          "internalType": "uint256",
          "name": "key",
          "type": "uint256"
        },
        {
          "internalType": "string",
          "name": "isGovtApproved",
          "type": "string"
        },
        {
          "internalType": "string",
          "name": "isAvailable",
          "type": "string"
        },
        {
          "internalType": "address",
          "name": "requester",
          "type": "address"
        },
        {
          "internalType": "enum LandRegistry.reqStatus",
          "name": "requestStatus",
          "type": "uint8"
        },
        {
          "internalType": "string",
          "name": "doc1Hash",
          "type": "string"
        },
        {
          "internalType": "string",
          "name": "doc2Hash",
          "type": "string"
        }
      ],
      "stateMutability": "view",
      "type": "function"
    },
    {
      "inputs": [
        {
          "internalType": "address",
          "name": "",
          "type": "address"
        },
        {
          "internalType": "uint256",
          "name": "",
          "type": "uint256"
        }
      ],
      "name": "userAssets",
      "outputs": [
        {
          "internalType": "uint256",
          "name": "",
          "type": "uint256"
        }
      ],
      "stateMutability": "view",
      "type": "function"
    },
    {
      "inputs": [
        {
          "internalType": "address",
          "name": "",
          "type": "address"
        }
      ],
      "name": "users",
      "outputs": [
        {
          "internalType": "address",
          "name": "userid",
          "type": "address"
        },
        {
          "internalType": "string",
          "name": "uname",
          "type": "string"
        },
        {
          "internalType": "uint256",
          "name": "ucontact",
          "type": "uint256"
        },
        {
          "internalType": "string",
          "name": "uemail",
          "type": "string"
        },
        {
          "internalType": "uint256",
          "name": "upostalCode",
          "type": "uint256"
        },
        {
          "internalType": "string",
          "name": "city",
          "type": "string"
        },
        {
          "internalType": "bool",
          "name": "exist",
          "type": "bool"
        }
      ],
      "stateMutability": "view",
      "type": "function"
    },
    {
      "inputs": [
        {
          "internalType": "address",
          "name": "uid",
          "type": "address"
        },
        {
          "internalType": "string",
          "name": "_uname",
          "type": "string"
        },
        {
          "internalType": "uint256",
          "name": "_ucontact",
          "type": "uint256"
        },
        {
          "internalType": "string",
          "name": "_uemail",
          "type": "string"
        },
        {
          "internalType": "uint256",
          "name": "_ucode",
          "type": "uint256"
        },
        {
          "internalType": "string",
          "name": "_ucity",
          "type": "string"
        }
      ],
      "name": "addUser",
      "outputs": [
        {
          "internalType": "bool",
          "name": "",
          "type": "bool"
        }
      ],
      "stateMutability": "nonpayable",
      "type": "function"
    },
    {
      "inputs": [
        {
          "internalType": "uint256",
          "name": "id",
          "type": "uint256"
        }
      ],
      "name": "getFullLandDetails",
      "outputs": [
        {
          "components": [
            {
              "internalType": "address payable",
              "name": "id",
              "type": "address"
            },
            {
              "internalType": "string",
              "name": "ipfsHash",
              "type": "string"
            },
            {
              "internalType": "string",
              "name": "laddress",
              "type": "string"
            },
            {
              "internalType": "uint256",
              "name": "lamount",
              "type": "uint256"
            },
            {
              "internalType": "uint256",
              "name": "key",
              "type": "uint256"
            },
            {
              "internalType": "string",
              "name": "isGovtApproved",
              "type": "string"
            },
            {
              "internalType": "string",
              "name": "isAvailable",
              "type": "string"
            },
            {
              "internalType": "address",
              "name": "requester",
              "type": "address"
            },
            {
              "internalType": "enum LandRegistry.reqStatus",
              "name": "requestStatus",
              "type": "uint8"
            },
            {
              "internalType": "string",
              "name": "doc1Hash",
              "type": "string"
            },
            {
              "internalType": "string",
              "name": "doc2Hash",
              "type": "string"
            }
          ],
          "internalType": "struct LandRegistry.landDetails",
          "name": "",
          "type": "tuple"
        }
      ],
      "stateMutability": "view",
      "type": "function"
    },
    {
      "inputs": [
        {
          "internalType": "address",
          "name": "uid",
          "type": "address"
        }
      ],
      "name": "getUser",
      "outputs": [
        {
          "internalType": "address",
          "name": "",
          "type": "address"
        },
        {
          "internalType": "string",
          "name": "",
          "type": "string"
        },
        {
          "internalType": "uint256",
          "name": "",
          "type": "uint256"
        },
        {
          "internalType": "string",
          "name": "",
          "type": "string"
        },
        {
          "internalType": "uint256",
          "name": "",
          "type": "uint256"
        },
        {
          "internalType": "string",
          "name": "",
          "type": "string"
        },
        {
          "internalType": "bool",
          "name": "",
          "type": "bool"
        }
      ],
      "stateMutability": "view",
      "type": "function"
    },
    {
      "inputs": [
        {
          "internalType": "address payable",
          "name": "_id",
          "type": "address"
        },
        {
          "internalType": "string",
          "name": "_ipfsHash",
          "type": "string"
        },
        {
          "internalType": "string",
          "name": "_laddress",
          "type": "string"
        },
        {
          "internalType": "uint256",
          "name": "_lamount",
          "type": "uint256"
        },
        {
          "internalType": "uint256",
          "name": "_key",
          "type": "uint256"
        },
        {
          "internalType": "string",
          "name": "status",
          "type": "string"
        },
        {
          "internalType": "string",
          "name": "_isAvailable",
          "type": "string"
        },
        {
          "internalType": "string",
          "name": "_doc1Hash",
          "type": "string"
        },
        {
          "internalType": "string",
          "name": "_doc2Hash",
          "type": "string"
        }
      ],
      "name": "Registration",
      "outputs": [
        {
          "internalType": "bool",
          "name": "",
          "type": "bool"
        }
      ],
      "stateMutability": "nonpayable",
      "type": "function"
    },
    {
      "inputs": [
        {
          "internalType": "string",
          "name": "_laddress",
          "type": "string"
        },
        {
          "internalType": "string",
          "name": "_lamount",
          "type": "string"
        }
      ],
      "name": "computeId",
      "outputs": [
        {
          "internalType": "uint256",
          "name": "",
          "type": "uint256"
        }
      ],
      "stateMutability": "view",
      "type": "function"
    },
    {
      "inputs": [],
      "name": "viewAssets",
      "outputs": [
        {
          "internalType": "uint256[]",
          "name": "",
          "type": "uint256[]"
        }
      ],
      "stateMutability": "view",
      "type": "function"
    },
    {
      "inputs": [],
      "name": "Assets",
      "outputs": [
        {
          "internalType": "uint256[]",
          "name": "",
          "type": "uint256[]"
        }
      ],
      "stateMutability": "view",
      "type": "function"
    },
    {
      "inputs": [
        {
          "internalType": "uint256",
          "name": "id",
          "type": "uint256"
        }
      ],
      "name": "landInfoOwner",
      "outputs": [
        {
          "internalType": "address payable",
          "name": "",
          "type": "address"
        },
        {
          "internalType": "string",
          "name": "",
          "type": "string"
        },
        {
          "internalType": "uint256",
          "name": "",
          "type": "uint256"
        },
        {
          "internalType": "string",
          "name": "",
          "type": "string"
        },
        {
          "internalType": "string",
          "name": "",
          "type": "string"
        },
        {
          "internalType": "address",
          "name": "",
          "type": "address"
        },
        {
          "internalType": "enum LandRegistry.reqStatus",
          "name": "",
          "type": "uint8"
        }
      ],
      "stateMutability": "view",
      "type": "function"
    },
    {
      "inputs": [
        {
          "internalType": "uint256",
          "name": "_id",
          "type": "uint256"
        },
        {
          "internalType": "string",
          "name": "status",
          "type": "string"
        },
        {
          "internalType": "string",
          "name": "_isAvailable",
          "type": "string"
        }
      ],
      "name": "govtStatus",
      "outputs": [
        {
          "internalType": "bool",
          "name": "",
          "type": "bool"
        }
      ],
      "stateMutability": "nonpayable",
      "type": "function"
    },
    {
      "inputs": [
        {
          "internalType": "uint256",
          "name": "property",
          "type": "uint256"
        }
      ],
      "name": "makeAvailable",
      "outputs": [],
      "stateMutability": "nonpayable",
      "type": "function"
    },
    {
      "inputs": [
        {
          "internalType": "uint256",
          "name": "id",
          "type": "uint256"
        }
      ],
      "name": "requstToLandOwner",
      "outputs": [],
      "stateMutability": "nonpayable",
      "type": "function"
    },
    {
      "inputs": [
        {
          "internalType": "uint256",
          "name": "property",
          "type": "uint256"
        },
        {
          "internalType": "enum LandRegistry.reqStatus",
          "name": "status",
          "type": "uint8"
        }
      ],
      "name": "processRequest",
      "outputs": [],
      "stateMutability": "nonpayable",
      "type": "function"
    },
    {
      "inputs": [
        {
          "internalType": "uint256",
          "name": "amount",
          "type": "uint256"
        }
      ],
      "name": "calculateStampDuty",
      "outputs": [
        {
          "internalType": "uint256",
          "name": "",
          "type": "uint256"
        }
      ],
      "stateMutability": "pure",
      "type": "function"
    },
    {
      "inputs": [
        {
          "internalType": "uint256",
          "name": "property",
          "type": "uint256"
        }
      ],
      "name": "buyProperty",
      "outputs": [],
      "stateMutability": "payable",
      "type": "function"
    },
    {
      "inputs": [
        {
          "internalType": "uint256",
          "name": "id",
          "type": "uint256"
        },
        {
          "internalType": "address",
          "name": "userAddress",
          "type": "address"
        }
      ],
      "name": "findId",
      "outputs": [
        {
          "internalType": "uint256",
          "name": "",
          "type": "uint256"
        }
      ],
      "stateMutability": "view",
      "type": "function"
    }
  ],
  "bytecode": "0x6080604052348015600e575f80fd5b503360025f6101000a81548173ffffffffffffffffffffffffffffffffffffffff021916908373ffffffffffffffffffffffffffffffffffffffff1602179055506138498061005c5f395ff3fe608060405260043610610108575f3560e01c8063861e465611610094578063baa39e0511610063578063baa39e05146103dc578063c478c69914610404578063f2c7027f14610440578063f696cff51461047c578063fdb10f50146104b857610108565b8063861e4656146102ee578063a27664ee14610334578063a87430ba14610370578063ae32a325146103b257610108565b8063644f73a6116100db578063644f73a6146101f05780636a8a69aa1461022c5780636c5ed939146102685780636f77926b146102905780636fa830a6146102d257610108565b80630d2d5dca1461010c5780633e40e2961461013657806355d6195214610172578063621fdbb7146101b4575b5f80fd5b348015610117575f80fd5b506101206104e0565b60405161012d919061274c565b60405180910390f35b348015610141575f80fd5b5061015c600480360381019061015791906128b9565b610573565b604051610169919061293e565b60405180910390f35b34801561017d575f80fd5b5061019860048036038101906101939190612981565b6105b8565b6040516101ab9796959493929190612ade565b60405180910390f35b3480156101bf575f80fd5b506101da60048036038101906101d59190612b8a565b610852565b6040516101e79190612c81565b60405180910390f35b3480156101fb575f80fd5b5061021660048036038101906102119190612981565b610a05565b604051610223919061293e565b60405180910390f35b348015610237575f80fd5b50610252600480360381019061024d9190612c9a565b610a2b565b60405161025f919061293e565b60405180910390f35b348015610273575f80fd5b5061028e60048036038101906102899190612981565b610a56565b005b34801561029b575f80fd5b506102b660048036038101906102b19190612cd8565b610b3f565b6040516102c99796959493929190612d03565b60405180910390f35b6102ec60048036038101906102e79190612981565b610f46565b005b3480156102f9575f80fd5b50610314600480360381019061030f9190612981565b611304565b60405161032b9b9a99989796959493929190612d85565b60405180910390f35b34801561033f575f80fd5b5061035a60048036038101906103559190612e58565b6116c9565b604051610367919061293e565b60405180910390f35b34801561037b575f80fd5b5061039660048036038101906103919190612cd8565b61179a565b6040516103a99796959493929190612d03565b60405180910390f35b3480156103bd575f80fd5b506103c6611995565b6040516103d3919061274c565b60405180910390f35b3480156103e7575f80fd5b5061040260048036038101906103fd9190612981565b6119eb565b005b34801561040f575f80fd5b5061042a60048036038101906104259190612981565b611aae565b604051610437919061301a565b60405180910390f35b34801561044b575f80fd5b506104666004803603810190610461919061303a565b611f32565b6040516104739190612c81565b60405180910390f35b348015610487575f80fd5b506104a2600480360381019061049d91906130ec565b611f82565b6040516104af9190612c81565b60405180910390f35b3480156104c3575f80fd5b506104de60048036038101906104d9919061327b565b612247565b005b606060045f3373ffffffffffffffffffffffffffffffffffffffff1673ffffffffffffffffffffffffffffffffffffffff1681526020019081526020015f205f0180548060200260200160405190810160405280929190818152602001828054801561056957602002820191905f5260205f20905b815481526020019060010190808311610555575b5050505050905090565b5f6509184e72a000838360405160200161058e9291906132f3565b604051602081830303815290604052805190602001205f1c6105b09190613343565b905092915050565b5f60605f6060805f8060065f8981526020019081526020015f205f015f9054906101000a900473ffffffffffffffffffffffffffffffffffffffff1660065f8a81526020019081526020015f2060010160065f8b81526020019081526020015f206003015460065f8c81526020019081526020015f2060050160065f8d81526020019081526020015f2060060160065f8e81526020019081526020015f206007015f9054906101000a900473ffffffffffffffffffffffffffffffffffffffff1660065f8f81526020019081526020015f2060070160149054906101000a900460ff168580546106a7906133a0565b80601f01602080910402602001604051908101604052809291908181526020018280546106d3906133a0565b801561071e5780601f106106f55761010080835404028352916020019161071e565b820191905f5260205f20905b81548152906001019060200180831161070157829003601f168201915b50505050509550838054610731906133a0565b80601f016020809104026020016040519081016040528092919081815260200182805461075d906133a0565b80156107a85780601f1061077f576101008083540402835291602001916107a8565b820191905f5260205f20905b81548152906001019060200180831161078b57829003601f168201915b505050505093508280546107bb906133a0565b80601f01602080910402602001604051908101604052809291908181526020018280546107e7906133a0565b80156108325780601f1061080957610100808354040283529160200191610832565b820191905f5260205f20905b81548152906001019060200180831161081557829003601f168201915b505050505092509650965096509650965096509650919395979092949650565b5f6040518060e001604052808873ffffffffffffffffffffffffffffffffffffffff1681526020018781526020018681526020018581526020018481526020018381526020016001151581525060055f8973ffffffffffffffffffffffffffffffffffffffff1673ffffffffffffffffffffffffffffffffffffffff1681526020019081526020015f205f820151815f015f6101000a81548173ffffffffffffffffffffffffffffffffffffffff021916908373ffffffffffffffffffffffffffffffffffffffff1602179055506020820151816001019081610935919061356d565b50604082015181600201556060820151816003019081610955919061356d565b506080820151816004015560a0820151816005019081610975919061356d565b5060c0820151816006015f6101000a81548160ff0219169083151502179055509050505f87908060018154018082558091505060019003905f5260205f20015f9091909190916101000a81548173ffffffffffffffffffffffffffffffffffffffff021916908373ffffffffffffffffffffffffffffffffffffffff160217905550600190509695505050505050565b5f806007905060648184610a199190613669565b610a2391906136aa565b915050919050565b6003602052815f5260405f208181548110610a44575f80fd5b905f5260205f20015f91509150505481565b3360065f8381526020019081526020015f206007015f6101000a81548173ffffffffffffffffffffffffffffffffffffffff021916908373ffffffffffffffffffffffffffffffffffffffff1602179055506040518060400160405280600781526020017f50656e64696e670000000000000000000000000000000000000000000000000081525060065f8381526020019081526020015f206006019081610afe919061356d565b50600160065f8381526020019081526020015f2060070160146101000a81548160ff02191690836003811115610b3757610b36612a6b565b5b021790555050565b5f60605f60605f60605f60055f8973ffffffffffffffffffffffffffffffffffffffff1673ffffffffffffffffffffffffffffffffffffffff1681526020019081526020015f206006015f9054906101000a900460ff1615610f3a5760055f8973ffffffffffffffffffffffffffffffffffffffff1673ffffffffffffffffffffffffffffffffffffffff1681526020019081526020015f205f015f9054906101000a900473ffffffffffffffffffffffffffffffffffffffff1660055f8a73ffffffffffffffffffffffffffffffffffffffff1673ffffffffffffffffffffffffffffffffffffffff1681526020019081526020015f2060010160055f8b73ffffffffffffffffffffffffffffffffffffffff1673ffffffffffffffffffffffffffffffffffffffff1681526020019081526020015f206002015460055f8c73ffffffffffffffffffffffffffffffffffffffff1673ffffffffffffffffffffffffffffffffffffffff1681526020019081526020015f2060030160055f8d73ffffffffffffffffffffffffffffffffffffffff1673ffffffffffffffffffffffffffffffffffffffff1681526020019081526020015f206004015460055f8e73ffffffffffffffffffffffffffffffffffffffff1673ffffffffffffffffffffffffffffffffffffffff1681526020019081526020015f2060050160055f8f73ffffffffffffffffffffffffffffffffffffffff1673ffffffffffffffffffffffffffffffffffffffff1681526020019081526020015f206006015f9054906101000a900460ff16858054610d95906133a0565b80601f0160208091040260200160405190810160405280929190818152602001828054610dc1906133a0565b8015610e0c5780601f10610de357610100808354040283529160200191610e0c565b820191905f5260205f20905b815481529060010190602001808311610def57829003601f168201915b50505050509550838054610e1f906133a0565b80601f0160208091040260200160405190810160405280929190818152602001828054610e4b906133a0565b8015610e965780601f10610e6d57610100808354040283529160200191610e96565b820191905f5260205f20905b815481529060010190602001808311610e7957829003601f168201915b50505050509350818054610ea9906133a0565b80601f0160208091040260200160405190810160405280929190818152602001828054610ed5906133a0565b8015610f205780601f10610ef757610100808354040283529160200191610f20565b820191905f5260205f20905b815481529060010190602001808311610f0357829003601f168201915b505050505091509650965096509650965096509650610f3b565b5b919395979092949650565b600380811115610f5957610f58612a6b565b5b60065f8381526020019081526020015f2060070160149054906101000a900460ff166003811115610f8d57610f8c612a6b565b5b14610f96575f80fd5b670de0b6b3a764000060065f8381526020019081526020015f2060030154610fbe9190613669565b3414610fc8575f80fd5b5f610ff9670de0b6b3a764000060065f8581526020019081526020015f2060030154610ff49190613669565b610a05565b9050734335bdd13cb56abf4542b841a0e7ca9fb7f4cbfc73ffffffffffffffffffffffffffffffffffffffff166108fc8290811502906040515f60405180830381858888f19350505050158015611052573d5f803e3d5ffd5b5060065f8381526020019081526020015f205f015f9054906101000a900473ffffffffffffffffffffffffffffffffffffffff1673ffffffffffffffffffffffffffffffffffffffff166108fc82346110ab91906136da565b90811502906040515f60405180830381858888f193505050501580156110d3573d5f803e3d5ffd5b5061111060065f8481526020019081526020015f205f015f9054906101000a900473ffffffffffffffffffffffffffffffffffffffff1683612459565b3360065f8481526020019081526020015f205f015f6101000a81548173ffffffffffffffffffffffffffffffffffffffff021916908373ffffffffffffffffffffffffffffffffffffffff1602179055506040518060400160405280600c81526020017f4e6f7420417070726f766564000000000000000000000000000000000000000081525060065f8481526020019081526020015f2060050190816111b7919061356d565b506040518060400160405280601d81526020017f4e6f742079657420617070726f7665642062792074686520676f76742e00000081525060065f8481526020019081526020015f20600601908161120e919061356d565b505f60065f8481526020019081526020015f206007015f6101000a81548173ffffffffffffffffffffffffffffffffffffffff021916908373ffffffffffffffffffffffffffffffffffffffff1602179055505f60065f8481526020019081526020015f2060070160146101000a81548160ff0219169083600381111561129857611297612a6b565b5b021790555060045f3373ffffffffffffffffffffffffffffffffffffffff1673ffffffffffffffffffffffffffffffffffffffff1681526020019081526020015f205f0182908060018154018082558091505060019003905f5260205f20015f90919091909150555050565b6006602052805f5260405f205f91509050805f015f9054906101000a900473ffffffffffffffffffffffffffffffffffffffff1690806001018054611348906133a0565b80601f0160208091040260200160405190810160405280929190818152602001828054611374906133a0565b80156113bf5780601f10611396576101008083540402835291602001916113bf565b820191905f5260205f20905b8154815290600101906020018083116113a257829003601f168201915b5050505050908060020180546113d4906133a0565b80601f0160208091040260200160405190810160405280929190818152602001828054611400906133a0565b801561144b5780601f106114225761010080835404028352916020019161144b565b820191905f5260205f20905b81548152906001019060200180831161142e57829003601f168201915b50505050509080600301549080600401549080600501805461146c906133a0565b80601f0160208091040260200160405190810160405280929190818152602001828054611498906133a0565b80156114e35780601f106114ba576101008083540402835291602001916114e3565b820191905f5260205f20905b8154815290600101906020018083116114c657829003601f168201915b5050505050908060060180546114f8906133a0565b80601f0160208091040260200160405190810160405280929190818152602001828054611524906133a0565b801561156f5780601f106115465761010080835404028352916020019161156f565b820191905f5260205f20905b81548152906001019060200180831161155257829003601f168201915b505050505090806007015f9054906101000a900473ffffffffffffffffffffffffffffffffffffffff16908060070160149054906101000a900460ff16908060080180546115bc906133a0565b80601f01602080910402602001604051908101604052809291908181526020018280546115e8906133a0565b80156116335780601f1061160a57610100808354040283529160200191611633565b820191905f5260205f20905b81548152906001019060200180831161161657829003601f168201915b505050505090806009018054611648906133a0565b80601f0160208091040260200160405190810160405280929190818152602001828054611674906133a0565b80156116bf5780601f10611696576101008083540402835291602001916116bf565b820191905f5260205f20905b8154815290600101906020018083116116a257829003601f168201915b505050505090508b565b5f805f90505b60045f8473ffffffffffffffffffffffffffffffffffffffff1673ffffffffffffffffffffffffffffffffffffffff1681526020019081526020015f205f018054905081101561178f578360045f8573ffffffffffffffffffffffffffffffffffffffff1673ffffffffffffffffffffffffffffffffffffffff1681526020019081526020015f205f01828154811061176b5761176a61370d565b5b905f5260205f200154036117825780915050611794565b80806001019150506116cf565b809150505b92915050565b6005602052805f5260405f205f91509050805f015f9054906101000a900473ffffffffffffffffffffffffffffffffffffffff16908060010180546117de906133a0565b80601f016020809104026020016040519081016040528092919081815260200182805461180a906133a0565b80156118555780601f1061182c57610100808354040283529160200191611855565b820191905f5260205f20905b81548152906001019060200180831161183857829003601f168201915b505050505090806002015490806003018054611870906133a0565b80601f016020809104026020016040519081016040528092919081815260200182805461189c906133a0565b80156118e75780601f106118be576101008083540402835291602001916118e7565b820191905f5260205f20905b8154815290600101906020018083116118ca57829003601f168201915b505050505090806004015490806005018054611902906133a0565b80601f016020809104026020016040519081016040528092919081815260200182805461192e906133a0565b80156119795780601f1061195057610100808354040283529160200191611979565b820191905f5260205f20905b81548152906001019060200180831161195c57829003601f168201915b505050505090806006015f9054906101000a900460ff16905087565b606060018054806020026020016040519081016040528092919081815260200182805480156119e157602002820191905f5260205f20905b8154815260200190600101908083116119cd575b5050505050905090565b3373ffffffffffffffffffffffffffffffffffffffff1660065f8381526020019081526020015f205f015f9054906101000a900473ffffffffffffffffffffffffffffffffffffffff1673ffffffffffffffffffffffffffffffffffffffff1614611a54575f80fd5b6040518060400160405280600981526020017f417661696c61626c65000000000000000000000000000000000000000000000081525060065f8381526020019081526020015f206006019081611aaa919061356d565b5050565b611ab66125f9565b60065f8381526020019081526020015f20604051806101600160405290815f82015f9054906101000a900473ffffffffffffffffffffffffffffffffffffffff1673ffffffffffffffffffffffffffffffffffffffff1673ffffffffffffffffffffffffffffffffffffffff168152602001600182018054611b37906133a0565b80601f0160208091040260200160405190810160405280929190818152602001828054611b63906133a0565b8015611bae5780601f10611b8557610100808354040283529160200191611bae565b820191905f5260205f20905b815481529060010190602001808311611b9157829003601f168201915b50505050508152602001600282018054611bc7906133a0565b80601f0160208091040260200160405190810160405280929190818152602001828054611bf3906133a0565b8015611c3e5780601f10611c1557610100808354040283529160200191611c3e565b820191905f5260205f20905b815481529060010190602001808311611c2157829003601f168201915b505050505081526020016003820154815260200160048201548152602001600582018054611c6b906133a0565b80601f0160208091040260200160405190810160405280929190818152602001828054611c97906133a0565b8015611ce25780601f10611cb957610100808354040283529160200191611ce2565b820191905f5260205f20905b815481529060010190602001808311611cc557829003601f168201915b50505050508152602001600682018054611cfb906133a0565b80601f0160208091040260200160405190810160405280929190818152602001828054611d27906133a0565b8015611d725780601f10611d4957610100808354040283529160200191611d72565b820191905f5260205f20905b815481529060010190602001808311611d5557829003601f168201915b50505050508152602001600782015f9054906101000a900473ffffffffffffffffffffffffffffffffffffffff1673ffffffffffffffffffffffffffffffffffffffff1673ffffffffffffffffffffffffffffffffffffffff1681526020016007820160149054906101000a900460ff166003811115611df557611df4612a6b565b5b6003811115611e0757611e06612a6b565b5b8152602001600882018054611e1b906133a0565b80601f0160208091040260200160405190810160405280929190818152602001828054611e47906133a0565b8015611e925780601f10611e6957610100808354040283529160200191611e92565b820191905f5260205f20905b815481529060010190602001808311611e7557829003601f168201915b50505050508152602001600982018054611eab906133a0565b80601f0160208091040260200160405190810160405280929190818152602001828054611ed7906133a0565b8015611f225780601f10611ef957610100808354040283529160200191611f22565b820191905f5260205f20905b815481529060010190602001808311611f0557829003601f168201915b5050505050815250509050919050565b5f8260065f8681526020019081526020015f206005019081611f54919061356d565b508160065f8681526020019081526020015f206006019081611f76919061356d565b50600190509392505050565b5f6040518061016001604052808b73ffffffffffffffffffffffffffffffffffffffff1681526020018a81526020018981526020018881526020018781526020018681526020018581526020015f73ffffffffffffffffffffffffffffffffffffffff1681526020015f6003811115611ffe57611ffd612a6b565b5b81526020018481526020018381525060065f8881526020019081526020015f205f820151815f015f6101000a81548173ffffffffffffffffffffffffffffffffffffffff021916908373ffffffffffffffffffffffffffffffffffffffff1602179055506020820151816001019081612077919061356d565b50604082015181600201908161208d919061356d565b50606082015181600301556080820151816004015560a08201518160050190816120b7919061356d565b5060c08201518160060190816120cd919061356d565b5060e0820151816007015f6101000a81548173ffffffffffffffffffffffffffffffffffffffff021916908373ffffffffffffffffffffffffffffffffffffffff1602179055506101008201518160070160146101000a81548160ff021916908360038111156121405761213f612a6b565b5b021790555061012082015181600801908161215b919061356d565b50610140820151816009019081612172919061356d565b5090505060035f8b73ffffffffffffffffffffffffffffffffffffffff1673ffffffffffffffffffffffffffffffffffffffff1681526020019081526020015f2086908060018154018082558091505060019003905f5260205f20015f9091909190915055600186908060018154018082558091505060019003905f5260205f20015f90919091909150557fcb4990052f95f6057496d19524f6c3163f50af9f33f2c15b092928e03414323e868b60405161222e92919061378c565b60405180910390a1600190509998505050505050505050565b3373ffffffffffffffffffffffffffffffffffffffff1660065f8481526020019081526020015f205f015f9054906101000a900473ffffffffffffffffffffffffffffffffffffffff1673ffffffffffffffffffffffffffffffffffffffff16146122b0575f80fd5b8060065f8481526020019081526020015f2060070160146101000a81548160ff021916908360038111156122e7576122e6612a6b565b5b02179055506040518060400160405280600881526020017f417070726f76656400000000000000000000000000000000000000000000000081525060065f8481526020019081526020015f206006019081612342919061356d565b506002600381111561235757612356612a6b565b5b81600381111561236a57612369612a6b565b5b03612455575f60065f8481526020019081526020015f206007015f6101000a81548173ffffffffffffffffffffffffffffffffffffffff021916908373ffffffffffffffffffffffffffffffffffffffff1602179055505f60065f8481526020019081526020015f2060070160146101000a81548160ff021916908360038111156123f8576123f7612a6b565b5b02179055506040518060400160405280600981526020017f417661696c61626c65000000000000000000000000000000000000000000000081525060065f8481526020019081526020015f206006019081612453919061356d565b505b5050565b5f61246482846116c9565b90505f8190505b600160045f8673ffffffffffffffffffffffffffffffffffffffff1673ffffffffffffffffffffffffffffffffffffffff1681526020019081526020015f205f01805490506124ba91906136da565b8110156125915760045f8573ffffffffffffffffffffffffffffffffffffffff1673ffffffffffffffffffffffffffffffffffffffff1681526020019081526020015f205f0160018261250d91906137b3565b8154811061251e5761251d61370d565b5b905f5260205f20015460045f8673ffffffffffffffffffffffffffffffffffffffff1673ffffffffffffffffffffffffffffffffffffffff1681526020019081526020015f205f0182815481106125785761257761370d565b5b905f5260205f200181905550808060010191505061246b565b5060045f8473ffffffffffffffffffffffffffffffffffffffff1673ffffffffffffffffffffffffffffffffffffffff1681526020019081526020015f205f018054806125e1576125e06137e6565b5b600190038181905f5260205f20015f90559055505050565b6040518061016001604052805f73ffffffffffffffffffffffffffffffffffffffff16815260200160608152602001606081526020015f81526020015f815260200160608152602001606081526020015f73ffffffffffffffffffffffffffffffffffffffff1681526020015f600381111561267857612677612a6b565b5b815260200160608152602001606081525090565b5f81519050919050565b5f82825260208201905092915050565b5f819050602082019050919050565b5f819050919050565b6126c7816126b5565b82525050565b5f6126d883836126be565b60208301905092915050565b5f602082019050919050565b5f6126fa8261268c565b6127048185612696565b935061270f836126a6565b805f5b8381101561273f57815161272688826126cd565b9750612731836126e4565b925050600181019050612712565b5085935050505092915050565b5f6020820190508181035f83015261276481846126f0565b905092915050565b5f604051905090565b5f80fd5b5f80fd5b5f80fd5b5f80fd5b5f601f19601f8301169050919050565b7f4e487b71000000000000000000000000000000000000000000000000000000005f52604160045260245ffd5b6127cb82612785565b810181811067ffffffffffffffff821117156127ea576127e9612795565b5b80604052505050565b5f6127fc61276c565b905061280882826127c2565b919050565b5f67ffffffffffffffff82111561282757612826612795565b5b61283082612785565b9050602081019050919050565b828183375f83830152505050565b5f61285d6128588461280d565b6127f3565b90508281526020810184848401111561287957612878612781565b5b61288484828561283d565b509392505050565b5f82601f8301126128a05761289f61277d565b5b81356128b084826020860161284b565b91505092915050565b5f80604083850312156128cf576128ce612775565b5b5f83013567ffffffffffffffff8111156128ec576128eb612779565b5b6128f88582860161288c565b925050602083013567ffffffffffffffff81111561291957612918612779565b5b6129258582860161288c565b9150509250929050565b612938816126b5565b82525050565b5f6020820190506129515f83018461292f565b92915050565b612960816126b5565b811461296a575f80fd5b50565b5f8135905061297b81612957565b92915050565b5f6020828403121561299657612995612775565b5b5f6129a38482850161296d565b91505092915050565b5f73ffffffffffffffffffffffffffffffffffffffff82169050919050565b5f6129d5826129ac565b9050919050565b6129e5816129cb565b82525050565b5f81519050919050565b5f82825260208201905092915050565b8281835e5f83830152505050565b5f612a1d826129eb565b612a2781856129f5565b9350612a37818560208601612a05565b612a4081612785565b840191505092915050565b5f612a55826129ac565b9050919050565b612a6581612a4b565b82525050565b7f4e487b71000000000000000000000000000000000000000000000000000000005f52602160045260245ffd5b60048110612aa957612aa8612a6b565b5b50565b5f819050612ab982612a98565b919050565b5f612ac882612aac565b9050919050565b612ad881612abe565b82525050565b5f60e082019050612af15f83018a6129dc565b8181036020830152612b038189612a13565b9050612b12604083018861292f565b8181036060830152612b248187612a13565b90508181036080830152612b388186612a13565b9050612b4760a0830185612a5c565b612b5460c0830184612acf565b98975050505050505050565b612b6981612a4b565b8114612b73575f80fd5b50565b5f81359050612b8481612b60565b92915050565b5f805f805f8060c08789031215612ba457612ba3612775565b5b5f612bb189828a01612b76565b965050602087013567ffffffffffffffff811115612bd257612bd1612779565b5b612bde89828a0161288c565b9550506040612bef89828a0161296d565b945050606087013567ffffffffffffffff811115612c1057612c0f612779565b5b612c1c89828a0161288c565b9350506080612c2d89828a0161296d565b92505060a087013567ffffffffffffffff811115612c4e57612c4d612779565b5b612c5a89828a0161288c565b9150509295509295509295565b5f8115159050919050565b612c7b81612c67565b82525050565b5f602082019050612c945f830184612c72565b92915050565b5f8060408385031215612cb057612caf612775565b5b5f612cbd85828601612b76565b9250506020612cce8582860161296d565b9150509250929050565b5f60208284031215612ced57612cec612775565b5b5f612cfa84828501612b76565b91505092915050565b5f60e082019050612d165f83018a612a5c565b8181036020830152612d288189612a13565b9050612d37604083018861292f565b8181036060830152612d498187612a13565b9050612d58608083018661292f565b81810360a0830152612d6a8185612a13565b9050612d7960c0830184612c72565b98975050505050505050565b5f61016082019050612d995f83018e6129dc565b8181036020830152612dab818d612a13565b90508181036040830152612dbf818c612a13565b9050612dce606083018b61292f565b612ddb608083018a61292f565b81810360a0830152612ded8189612a13565b905081810360c0830152612e018188612a13565b9050612e1060e0830187612a5c565b612e1e610100830186612acf565b818103610120830152612e318185612a13565b9050818103610140830152612e468184612a13565b90509c9b505050505050505050505050565b5f8060408385031215612e6e57612e6d612775565b5b5f612e7b8582860161296d565b9250506020612e8c85828601612b76565b9150509250929050565b612e9f816129cb565b82525050565b5f82825260208201905092915050565b5f612ebf826129eb565b612ec98185612ea5565b9350612ed9818560208601612a05565b612ee281612785565b840191505092915050565b612ef681612a4b565b82525050565b612f0581612abe565b82525050565b5f61016083015f830151612f215f860182612e96565b5060208301518482036020860152612f398282612eb5565b91505060408301518482036040860152612f538282612eb5565b9150506060830151612f6860608601826126be565b506080830151612f7b60808601826126be565b5060a083015184820360a0860152612f938282612eb5565b91505060c083015184820360c0860152612fad8282612eb5565b91505060e0830151612fc260e0860182612eed565b50610100830151612fd7610100860182612efc565b50610120830151848203610120860152612ff18282612eb5565b91505061014083015184820361014086015261300d8282612eb5565b9150508091505092915050565b5f6020820190508181035f8301526130328184612f0b565b905092915050565b5f805f6060848603121561305157613050612775565b5b5f61305e8682870161296d565b935050602084013567ffffffffffffffff81111561307f5761307e612779565b5b61308b8682870161288c565b925050604084013567ffffffffffffffff8111156130ac576130ab612779565b5b6130b88682870161288c565b9150509250925092565b6130cb816129cb565b81146130d5575f80fd5b50565b5f813590506130e6816130c2565b92915050565b5f805f805f805f805f6101208a8c03121561310a57613109612775565b5b5f6131178c828d016130d8565b99505060208a013567ffffffffffffffff81111561313857613137612779565b5b6131448c828d0161288c565b98505060408a013567ffffffffffffffff81111561316557613164612779565b5b6131718c828d0161288c565b97505060606131828c828d0161296d565b96505060806131938c828d0161296d565b95505060a08a013567ffffffffffffffff8111156131b4576131b3612779565b5b6131c08c828d0161288c565b94505060c08a013567ffffffffffffffff8111156131e1576131e0612779565b5b6131ed8c828d0161288c565b93505060e08a013567ffffffffffffffff81111561320e5761320d612779565b5b61321a8c828d0161288c565b9250506101008a013567ffffffffffffffff81111561323c5761323b612779565b5b6132488c828d0161288c565b9150509295985092959850929598565b60048110613264575f80fd5b50565b5f8135905061327581613258565b92915050565b5f806040838503121561329157613290612775565b5b5f61329e8582860161296d565b92505060206132af85828601613267565b9150509250929050565b5f81905092915050565b5f6132cd826129eb565b6132d781856132b9565b93506132e7818560208601612a05565b80840191505092915050565b5f6132fe82856132c3565b915061330a82846132c3565b91508190509392505050565b7f4e487b71000000000000000000000000000000000000000000000000000000005f52601260045260245ffd5b5f61334d826126b5565b9150613358836126b5565b92508261336857613367613316565b5b828206905092915050565b7f4e487b71000000000000000000000000000000000000000000000000000000005f52602260045260245ffd5b5f60028204905060018216806133b757607f821691505b6020821081036133ca576133c9613373565b5b50919050565b5f819050815f5260205f209050919050565b5f6020601f8301049050919050565b5f82821b905092915050565b5f6008830261342c7fffffffffffffffffffffffffffffffffffffffffffffffffffffffffffffffff826133f1565b61343686836133f1565b95508019841693508086168417925050509392505050565b5f819050919050565b5f61347161346c613467846126b5565b61344e565b6126b5565b9050919050565b5f819050919050565b61348a83613457565b61349e61349682613478565b8484546133fd565b825550505050565b5f90565b6134b26134a6565b6134bd818484613481565b505050565b5b818110156134e0576134d55f826134aa565b6001810190506134c3565b5050565b601f821115613525576134f6816133d0565b6134ff846133e2565b8101602085101561350e578190505b61352261351a856133e2565b8301826134c2565b50505b505050565b5f82821c905092915050565b5f6135455f198460080261352a565b1980831691505092915050565b5f61355d8383613536565b9150826002028217905092915050565b613576826129eb565b67ffffffffffffffff81111561358f5761358e612795565b5b61359982546133a0565b6135a48282856134e4565b5f60209050601f8311600181146135d5575f84156135c3578287015190505b6135cd8582613552565b865550613634565b601f1984166135e3866133d0565b5f5b8281101561360a578489015182556001820191506020850194506020810190506135e5565b868310156136275784890151613623601f891682613536565b8355505b6001600288020188555050505b505050505050565b7f4e487b71000000000000000000000000000000000000000000000000000000005f52601160045260245ffd5b5f613673826126b5565b915061367e836126b5565b925082820261368c816126b5565b915082820484148315176136a3576136a261363c565b5b5092915050565b5f6136b4826126b5565b91506136bf836126b5565b9250826136cf576136ce613316565b5b828204905092915050565b5f6136e4826126b5565b91506136ef836126b5565b92508282039050818111156137075761370661363c565b5b92915050565b7f4e487b71000000000000000000000000000000000000000000000000000000005f52603260045260245ffd5b5f61375461374f61374a846129ac565b61344e565b6129ac565b9050919050565b5f6137658261373a565b9050919050565b5f6137768261375b565b9050919050565b6137868161376c565b82525050565b5f60408201905061379f5f83018561292f565b6137ac602083018461377d565b9392505050565b5f6137bd826126b5565b91506137c8836126b5565b92508282019050808211156137e0576137df61363c565b5b92915050565b7f4e487b71000000000000000000000000000000000000000000000000000000005f52603160045260245ffdfea2646970667358221220bbb6fd1479dd3cdb052a38535930b86b10a4562f7751d20a9603a06347b04aac64736f6c63430008190033",
  "immutableReferences": {},
  "source": "// SPDX-License-Identifier: MIT\npragma solidity ^0.8.25;\n\n//  Updated government wallet address\naddress payable constant govtAddress = payable(0x4335BdD13cB56abf4542b841a0e7ca9fb7f4CBFc);\n\ncontract LandRegistry {\n    struct Task {\n        uint256 id;\n        string content;\n        bool completed;\n    }\n    struct user {\n        address userid;\n        string uname;\n        uint256 ucontact;\n        string uemail;\n        uint256 upostalCode;\n        string city;\n        bool exist;\n    }\n    \n    // Use 'landDetails' instead of 'LandDetails' to match the function return type\n    struct landDetails {\n        address payable id;\n        string ipfsHash;\n        string laddress;\n        uint256 lamount;\n        uint256 key;\n        string isGovtApproved;\n        string isAvailable;\n        address requester;\n        reqStatus requestStatus;\n        string doc1Hash;\n        string doc2Hash;\n    }\n\n    address[] userarr;\n    uint256[] assets;\n    address owner;\n    enum reqStatus {Default, Pending, Rejected, Approved}\n\n    // Declare the mapping for userAssets\n    mapping(address => uint256[]) public userAssets;\n\n    // Declare the event for LandRegistered\n    event LandRegistered(uint256 key, address owner);\n\n    constructor() {\n        owner = msg.sender;\n    }\n\n    struct profiles {\n        uint256[] assetList;\n    }\n\n    mapping(address => profiles) profile;\n    mapping(address => user) public users;\n    mapping(uint256 => landDetails) public land;\n\n    function addUser(\n        address uid,\n        string memory _uname,\n        uint256 _ucontact,\n        string memory _uemail,\n        uint256 _ucode,\n        string memory _ucity\n    ) public returns (bool) {\n        users[uid] = user(\n            uid,\n            _uname,\n            _ucontact,\n            _uemail,\n            _ucode,\n            _ucity,\n            true\n        );\n        userarr.push(uid);\n        return true;\n    }\n\n    // Corrected return type to 'landDetails'\n    function getFullLandDetails(uint256 id) public view returns (landDetails memory) {\n        return land[id];\n    }\n\n    function getUser(address uid)\n        public\n        view\n        returns (\n            address,\n            string memory,\n            uint256,\n            string memory,\n            uint256,\n            string memory,\n            bool\n        )\n    {\n        if (users[uid].exist)\n            return (\n                users[uid].userid,\n                users[uid].uname,\n                users[uid].ucontact,\n                users[uid].uemail,\n                users[uid].upostalCode,\n                users[uid].city,\n                users[uid].exist\n            );\n    }\n\n    function Registration(\n    address payable _id,\n    string memory _ipfsHash,\n    string memory _laddress,\n    uint256 _lamount,\n    uint256 _key,\n    string memory status,\n    string memory _isAvailable,\n    string memory _doc1Hash,\n    string memory _doc2Hash\n    ) public returns (bool) {\n        land[_key] = landDetails(\n            _id,\n            _ipfsHash,\n            _laddress,\n            _lamount,\n            _key,\n            status,\n            _isAvailable,\n            address(0),\n            reqStatus.Default,\n            _doc1Hash,\n            _doc2Hash\n        );\n        // Store the asset under the user's address\n        userAssets[_id].push(_key);\n        assets.push(_key);\n        \n        // Emit the LandRegistered event\n        emit LandRegistered(_key, _id);\n        \n        return true;\n    }\n\n    function computeId(string memory _laddress, string memory _lamount)\n        public\n        view\n        returns (uint256)\n    {\n        return\n            uint256(keccak256(abi.encodePacked(_laddress, _lamount))) % 10000000000000;\n    }\n\n    function viewAssets() public view returns (uint256[] memory) {\n        return (profile[msg.sender].assetList);\n    }\n\n    function Assets() public view returns (uint256[] memory) {\n        return assets;\n    }\n\n    function landInfoOwner(uint256 id)\n        public\n        view\n        returns (\n            address payable,\n            string memory,\n            uint256,\n            string memory,\n            string memory,\n            address,\n            reqStatus\n        )\n    {\n        return (\n            land[id].id,\n            land[id].ipfsHash,\n            land[id].lamount,\n            land[id].isGovtApproved,\n            land[id].isAvailable,\n            land[id].requester,\n            land[id].requestStatus\n        );\n    }\n\n    function govtStatus(\n        uint256 _id,\n        string memory status,\n        string memory _isAvailable\n    ) public returns (bool) {\n        land[_id].isGovtApproved = status;\n        land[_id].isAvailable = _isAvailable;\n        return true;\n    }\n\n    function makeAvailable(uint256 property) public {\n        require(land[property].id == msg.sender);\n        land[property].isAvailable = \"Available\";\n    }\n\n    function requstToLandOwner(uint256 id) public {\n        land[id].requester = msg.sender;\n        land[id].isAvailable = \"Pending\";\n        land[id].requestStatus = reqStatus.Pending;\n    }\n\n    function processRequest(uint256 property, reqStatus status) public {\n        require(land[property].id == msg.sender);\n        land[property].requestStatus = status;\n        land[property].isAvailable = \"Approved\";\n        if (status == reqStatus.Rejected) {\n            land[property].requester = address(0);\n            land[property].requestStatus = reqStatus.Default;\n            land[property].isAvailable = \"Available\";\n        }\n    }\n\n    function calculateStampDuty(uint256 amount) public pure returns (uint256) {\n        uint256 stampDutyPercentage = 7; //  7% stamp duty\n        return (amount * stampDutyPercentage) / 100;\n    }\n\n    function buyProperty(uint256 property) public payable {\n        require(land[property].requestStatus == reqStatus.Approved);\n        require(msg.value == (land[property].lamount * 1 ether));\n\n        uint256 stampDuty = calculateStampDuty(land[property].lamount * 1 ether);\n        \n        govtAddress.transfer(stampDuty);\n        land[property].id.transfer(msg.value - stampDuty);\n\n        removeOwnership(land[property].id, property);\n        land[property].id = payable(msg.sender);\n        land[property].isGovtApproved = \"Not Approved\";\n        land[property].isAvailable = \"Not yet approved by the govt.\";\n        land[property].requester = address(0);\n        land[property].requestStatus = reqStatus.Default;\n        profile[msg.sender].assetList.push(property);\n    }\n\n    function removeOwnership(address previousOwner, uint256 id) private {\n        uint256 index = findId(id, previousOwner);\n        \n        for (uint256 i = index; i < profile[previousOwner].assetList.length - 1; i++) {\n            profile[previousOwner].assetList[i] = profile[previousOwner].assetList[i + 1];\n        }\n        \n        profile[previousOwner].assetList.pop();\n    }\n\n    function findId(uint256 id, address userAddress) public view returns (uint256) {\n        uint256 i;\n        for (i = 0; i < profile[userAddress].assetList.length; i++) {\n            if (profile[userAddress].assetList[i] == id) return i;\n        }\n        return i;\n    }\n}\n",
  "sourcePath": "D:\\Projects\\LandMine\\contracts\\LandRegistry.sol",
  "compiler": {
    "name": "solc",
    "version": "0.8.25+commit.b61c2a91.Emscripten.clang"
  },
  "schemaVersion": "3.4.16",
  "updatedAt": "2025-04-13T10:38:14.066Z",
  "devdoc": {
    "kind": "dev",
    "methods": {},
    "version": 1
  },
  "userdoc": {
    "kind": "user",
    "methods": {},
    "version": 1
  }
}