{
  "_format": "hh-sol-artifact-1",
  "contractName": "LandRegistry",
  "sourceName": "contracts/LandRegistry.sol",
  "abi": [
    {
      "inputs": [],
      "stateMutability": "nonpayable",
      "type": "constructor"
    },
    {
      "anonymous": false,
      "inputs": [
        {
          "indexed": false,
          "internalType": "uint256",
          "name": "key",
          "type": "uint256"
        },
        {
          "indexed": false,
          "internalType": "address",
          "name": "owner",
          "type": "address"
        }
      ],
      "name": "LandRegistered",
      "type": "event"
    },
    {
      "inputs": [
        {
          "internalType": "address",
          "name": "uid",
          "type": "address"
        },
        {
          "internalType": "string",
          "name": "_uname",
          "type": "string"
        },
        {
          "internalType": "uint256",
          "name": "_ucontact",
          "type": "uint256"
        },
        {
          "internalType": "string",
          "name": "_uemail",
          "type": "string"
        },
        {
          "internalType": "uint256",
          "name": "_ucode",
          "type": "uint256"
        },
        {
          "internalType": "string",
          "name": "_ucity",
          "type": "string"
        }
      ],
      "name": "addUser",
      "outputs": [
        {
          "internalType": "bool",
          "name": "",
          "type": "bool"
        }
      ],
      "stateMutability": "nonpayable",
      "type": "function"
    },
    {
      "inputs": [
        {
          "internalType": "uint256",
          "name": "",
          "type": "uint256"
        }
      ],
      "name": "assets",
      "outputs": [
        {
          "internalType": "uint256",
          "name": "",
          "type": "uint256"
        }
      ],
      "stateMutability": "view",
      "type": "function"
    },
    {
      "inputs": [
        {
          "internalType": "uint256",
          "name": "property",
          "type": "uint256"
        }
      ],
      "name": "buyProperty",
      "outputs": [],
      "stateMutability": "payable",
      "type": "function"
    },
    {
      "inputs": [
        {
          "internalType": "uint256",
          "name": "amount",
          "type": "uint256"
        }
      ],
      "name": "calculateStampDuty",
      "outputs": [
        {
          "internalType": "uint256",
          "name": "",
          "type": "uint256"
        }
      ],
      "stateMutability": "pure",
      "type": "function"
    },
    {
      "inputs": [
        {
          "internalType": "string",
          "name": "_laddress",
          "type": "string"
        },
        {
          "internalType": "string",
          "name": "_lamount",
          "type": "string"
        }
      ],
      "name": "computeId",
      "outputs": [
        {
          "internalType": "uint256",
          "name": "",
          "type": "uint256"
        }
      ],
      "stateMutability": "pure",
      "type": "function"
    },
    {
      "inputs": [
        {
          "internalType": "uint256",
          "name": "id",
          "type": "uint256"
        },
        {
          "internalType": "address",
          "name": "userAddress",
          "type": "address"
        }
      ],
      "name": "findAssetIndex",
      "outputs": [
        {
          "internalType": "uint256",
          "name": "",
          "type": "uint256"
        }
      ],
      "stateMutability": "view",
      "type": "function"
    },
    {
      "inputs": [],
      "name": "getAllAssets",
      "outputs": [
        {
          "internalType": "uint256[]",
          "name": "",
          "type": "uint256[]"
        }
      ],
      "stateMutability": "view",
      "type": "function"
    },
    {
      "inputs": [
        {
          "internalType": "uint256",
          "name": "id",
          "type": "uint256"
        }
      ],
      "name": "getFullLandDetails",
      "outputs": [
        {
          "components": [
            {
              "internalType": "address payable",
              "name": "id",
              "type": "address"
            },
            {
              "internalType": "string",
              "name": "ipfsHash",
              "type": "string"
            },
            {
              "internalType": "string",
              "name": "laddress",
              "type": "string"
            },
            {
              "internalType": "uint256",
              "name": "lamount",
              "type": "uint256"
            },
            {
              "internalType": "uint256",
              "name": "key",
              "type": "uint256"
            },
            {
              "internalType": "enum LandRegistry.ApprovalStatus",
              "name": "isGovtApproved",
              "type": "uint8"
            },
            {
              "internalType": "enum LandRegistry.Availability",
              "name": "isAvailable",
              "type": "uint8"
            },
            {
              "internalType": "address",
              "name": "requester",
              "type": "address"
            },
            {
              "internalType": "enum LandRegistry.ReqStatus",
              "name": "requestStatus",
              "type": "uint8"
            },
            {
              "internalType": "string",
              "name": "doc1Hash",
              "type": "string"
            },
            {
              "internalType": "string",
              "name": "doc2Hash",
              "type": "string"
            }
          ],
          "internalType": "struct LandRegistry.LandDetails",
          "name": "",
          "type": "tuple"
        }
      ],
      "stateMutability": "view",
      "type": "function"
    },
    {
      "inputs": [
        {
          "internalType": "uint256",
          "name": "id",
          "type": "uint256"
        }
      ],
      "name": "getLandInfoOwner",
      "outputs": [
        {
          "internalType": "address payable",
          "name": "",
          "type": "address"
        },
        {
          "internalType": "string",
          "name": "",
          "type": "string"
        },
        {
          "internalType": "uint256",
          "name": "",
          "type": "uint256"
        },
        {
          "internalType": "string",
          "name": "",
          "type": "string"
        },
        {
          "internalType": "string",
          "name": "",
          "type": "string"
        },
        {
          "internalType": "address",
          "name": "",
          "type": "address"
        },
        {
          "internalType": "enum LandRegistry.ReqStatus",
          "name": "",
          "type": "uint8"
        }
      ],
      "stateMutability": "view",
      "type": "function"
    },
    {
      "inputs": [
        {
          "internalType": "address",
          "name": "uid",
          "type": "address"
        }
      ],
      "name": "getUser",
      "outputs": [
        {
          "internalType": "address",
          "name": "",
          "type": "address"
        },
        {
          "internalType": "string",
          "name": "",
          "type": "string"
        },
        {
          "internalType": "uint256",
          "name": "",
          "type": "uint256"
        },
        {
          "internalType": "string",
          "name": "",
          "type": "string"
        },
        {
          "internalType": "uint256",
          "name": "",
          "type": "uint256"
        },
        {
          "internalType": "string",
          "name": "",
          "type": "string"
        },
        {
          "internalType": "bool",
          "name": "",
          "type": "bool"
        }
      ],
      "stateMutability": "view",
      "type": "function"
    },
    {
      "inputs": [
        {
          "internalType": "address",
          "name": "userAddress",
          "type": "address"
        }
      ],
      "name": "getUserAssets",
      "outputs": [
        {
          "internalType": "uint256[]",
          "name": "",
          "type": "uint256[]"
        }
      ],
      "stateMutability": "view",
      "type": "function"
    },
    {
      "inputs": [],
      "name": "govtAddress",
      "outputs": [
        {
          "internalType": "address payable",
          "name": "",
          "type": "address"
        }
      ],
      "stateMutability": "view",
      "type": "function"
    },
    {
      "inputs": [
        {
          "internalType": "uint256",
          "name": "",
          "type": "uint256"
        }
      ],
      "name": "lands",
      "outputs": [
        {
          "internalType": "address payable",
          "name": "id",
          "type": "address"
        },
        {
          "internalType": "string",
          "name": "ipfsHash",
          "type": "string"
        },
        {
          "internalType": "string",
          "name": "laddress",
          "type": "string"
        },
        {
          "internalType": "uint256",
          "name": "lamount",
          "type": "uint256"
        },
        {
          "internalType": "uint256",
          "name": "key",
          "type": "uint256"
        },
        {
          "internalType": "enum LandRegistry.ApprovalStatus",
          "name": "isGovtApproved",
          "type": "uint8"
        },
        {
          "internalType": "enum LandRegistry.Availability",
          "name": "isAvailable",
          "type": "uint8"
        },
        {
          "internalType": "address",
          "name": "requester",
          "type": "address"
        },
        {
          "internalType": "enum LandRegistry.ReqStatus",
          "name": "requestStatus",
          "type": "uint8"
        },
        {
          "internalType": "string",
          "name": "doc1Hash",
          "type": "string"
        },
        {
          "internalType": "string",
          "name": "doc2Hash",
          "type": "string"
        }
      ],
      "stateMutability": "view",
      "type": "function"
    },
    {
      "inputs": [
        {
          "internalType": "uint256",
          "name": "property",
          "type": "uint256"
        }
      ],
      "name": "makeAvailable",
      "outputs": [],
      "stateMutability": "nonpayable",
      "type": "function"
    },
    {
      "inputs": [],
      "name": "owner",
      "outputs": [
        {
          "internalType": "address",
          "name": "",
          "type": "address"
        }
      ],
      "stateMutability": "view",
      "type": "function"
    },
    {
      "inputs": [
        {
          "internalType": "uint256",
          "name": "property",
          "type": "uint256"
        },
        {
          "internalType": "enum LandRegistry.ReqStatus",
          "name": "status",
          "type": "uint8"
        }
      ],
      "name": "processRequest",
      "outputs": [],
      "stateMutability": "nonpayable",
      "type": "function"
    },
    {
      "inputs": [
        {
          "internalType": "address payable",
          "name": "_id",
          "type": "address"
        },
        {
          "internalType": "string",
          "name": "_ipfsHash",
          "type": "string"
        },
        {
          "internalType": "string",
          "name": "_laddress",
          "type": "string"
        },
        {
          "internalType": "uint256",
          "name": "_lamount",
          "type": "uint256"
        },
        {
          "internalType": "uint256",
          "name": "_key",
          "type": "uint256"
        },
        {
          "internalType": "enum LandRegistry.ApprovalStatus",
          "name": "status",
          "type": "uint8"
        },
        {
          "internalType": "enum LandRegistry.Availability",
          "name": "_isAvailable",
          "type": "uint8"
        },
        {
          "internalType": "string",
          "name": "_doc1Hash",
          "type": "string"
        },
        {
          "internalType": "string",
          "name": "_doc2Hash",
          "type": "string"
        }
      ],
      "name": "registerLand",
      "outputs": [
        {
          "internalType": "bool",
          "name": "",
          "type": "bool"
        }
      ],
      "stateMutability": "nonpayable",
      "type": "function"
    },
    {
      "inputs": [
        {
          "internalType": "uint256",
          "name": "id",
          "type": "uint256"
        }
      ],
      "name": "requestLand",
      "outputs": [],
      "stateMutability": "nonpayable",
      "type": "function"
    },
    {
      "inputs": [
        {
          "internalType": "uint256",
          "name": "_id",
          "type": "uint256"
        },
        {
          "internalType": "enum LandRegistry.ApprovalStatus",
          "name": "status",
          "type": "uint8"
        },
        {
          "internalType": "enum LandRegistry.Availability",
          "name": "_isAvailable",
          "type": "uint8"
        }
      ],
      "name": "updateGovtStatus",
      "outputs": [
        {
          "internalType": "bool",
          "name": "",
          "type": "bool"
        }
      ],
      "stateMutability": "nonpayable",
      "type": "function"
    },
    {
      "inputs": [
        {
          "internalType": "uint256",
          "name": "",
          "type": "uint256"
        }
      ],
      "name": "userArr",
      "outputs": [
        {
          "internalType": "address",
          "name": "",
          "type": "address"
        }
      ],
      "stateMutability": "view",
      "type": "function"
    },
    {
      "inputs": [
        {
          "internalType": "address",
          "name": "",
          "type": "address"
        },
        {
          "internalType": "uint256",
          "name": "",
          "type": "uint256"
        }
      ],
      "name": "userAssets",
      "outputs": [
        {
          "internalType": "uint256",
          "name": "",
          "type": "uint256"
        }
      ],
      "stateMutability": "view",
      "type": "function"
    },
    {
      "inputs": [
        {
          "internalType": "address",
          "name": "",
          "type": "address"
        }
      ],
      "name": "users",
      "outputs": [
        {
          "internalType": "address",
          "name": "userid",
          "type": "address"
        },
        {
          "internalType": "string",
          "name": "uname",
          "type": "string"
        },
        {
          "internalType": "uint256",
          "name": "ucontact",
          "type": "uint256"
        },
        {
          "internalType": "string",
          "name": "uemail",
          "type": "string"
        },
        {
          "internalType": "uint256",
          "name": "upostalCode",
          "type": "uint256"
        },
        {
          "internalType": "string",
          "name": "city",
          "type": "string"
        },
        {
          "internalType": "bool",
          "name": "exist",
          "type": "bool"
        }
      ],
      "stateMutability": "view",
      "type": "function"
    },
    {
      "inputs": [],
      "name": "viewAssets",
      "outputs": [
        {
          "internalType": "uint256[]",
          "name": "",
          "type": "uint256[]"
        }
      ],
      "stateMutability": "view",
      "type": "function"
    }
  ],
  "bytecode": "0x6080604052348015600f57600080fd5b5033600360006101000a81548173ffffffffffffffffffffffffffffffffffffffff021916908373ffffffffffffffffffffffffffffffffffffffff16021790555073f39fd6e51aad88f6f4ce6ab8827279cfffb922666000806101000a81548173ffffffffffffffffffffffffffffffffffffffff021916908373ffffffffffffffffffffffffffffffffffffffff160217905550614741806100b46000396000f3fe6080604052600436106101405760003560e01c80636fa830a6116100b6578063c478c6991161006f578063c478c699146104e5578063cf35bdd014610522578063d2445c891461055f578063e261f1e51461058a578063e7d93372146105d1578063fdb10f501461060e57610140565b80636fa830a6146103cc578063717c3814146103e8578063765ff061146104115780638da5cb5b1461044e578063a87430ba14610479578063baa39e05146104bc57610140565b80635def24a7116101085780635def24a714610258578063621fdbb714610295578063644f73a6146102d25780636a8a69aa1461030f5780636b4a6fba1461034c5780636f77926b1461038957610140565b8063057d7781146101455780630d2d5dca146101825780632acada4d146101ad5780633e40e296146101d8578063586db4dc14610215575b600080fd5b34801561015157600080fd5b5061016c60048036038101906101679190612fee565b610637565b604051610179919061305c565b60405180910390f35b34801561018e57600080fd5b50610197610676565b6040516101a49190613135565b60405180910390f35b3480156101b957600080fd5b506101c261070e565b6040516101cf9190613135565b60405180910390f35b3480156101e457600080fd5b506101ff60048036038101906101fa919061329d565b610766565b60405161020c9190613324565b60405180910390f35b34801561022157600080fd5b5061023c60048036038101906102379190612fee565b6107ad565b60405161024f9796959493929190613456565b60405180910390f35b34801561026457600080fd5b5061027f600480360381019061027a9190613550565b610a9f565b60405161028c91906136a5565b60405180910390f35b3480156102a157600080fd5b506102bc60048036038101906102b791906136ec565b610eda565b6040516102c991906136a5565b60405180910390f35b3480156102de57600080fd5b506102f960048036038101906102f49190612fee565b611195565b6040516103069190613324565b60405180910390f35b34801561031b57600080fd5b50610336600480360381019061033191906137cd565b6111bc565b6040516103439190613324565b60405180910390f35b34801561035857600080fd5b50610373600480360381019061036e919061380d565b6111ed565b60405161038091906136a5565b60405180910390f35b34801561039557600080fd5b506103b060048036038101906103ab9190613860565b6113ab565b6040516103c3979695949392919061388d565b60405180910390f35b6103e660048036038101906103e19190612fee565b611804565b005b3480156103f457600080fd5b5061040f600480360381019061040a9190612fee565b611c32565b005b34801561041d57600080fd5b5061043860048036038101906104339190613860565b611d92565b6040516104459190613135565b60405180910390f35b34801561045a57600080fd5b50610463611e2c565b604051610470919061305c565b60405180910390f35b34801561048557600080fd5b506104a0600480360381019061049b9190613860565b611e52565b6040516104b3979695949392919061388d565b60405180910390f35b3480156104c857600080fd5b506104e360048036038101906104de9190612fee565b612059565b005b3480156104f157600080fd5b5061050c60048036038101906105079190612fee565b61213f565b6040516105199190613b1c565b60405180910390f35b34801561052e57600080fd5b5061054960048036038101906105449190612fee565b612526565b6040516105569190613324565b60405180910390f35b34801561056b57600080fd5b5061057461254a565b6040516105819190613b3e565b60405180910390f35b34801561059657600080fd5b506105b160048036038101906105ac9190612fee565b61256e565b6040516105c89b9a99989796959493929190613b77565b60405180910390f35b3480156105dd57600080fd5b506105f860048036038101906105f39190613c3e565b61284f565b6040516106059190613324565b60405180910390f35b34801561061a57600080fd5b5061063560048036038101906106309190613ca3565b612961565b005b6001818154811061064757600080fd5b906000526020600020016000915054906101000a900473ffffffffffffffffffffffffffffffffffffffff1681565b6060600460003373ffffffffffffffffffffffffffffffffffffffff1673ffffffffffffffffffffffffffffffffffffffff16815260200190815260200160002060000180548060200260200160405190810160405280929190818152602001828054801561070457602002820191906000526020600020905b8154815260200190600101908083116106f0575b5050505050905090565b6060600280548060200260200160405190810160405280929190818152602001828054801561075c57602002820191906000526020600020905b815481526020019060010190808311610748575b5050505050905090565b60006509184e72a0008383604051602001610782929190613d1f565b6040516020818303038152906040528051906020012060001c6107a59190613d72565b905092915050565b6000606060006060806000806006600089815260200190815260200160002060000160009054906101000a900473ffffffffffffffffffffffffffffffffffffffff16600660008a8152602001908152602001600020600101600660008b81526020019081526020016000206003015460016002811115610831576108306133df565b5b600660008d815260200190815260200160002060050160009054906101000a900460ff166002811115610867576108666133df565b5b146108a7576040518060400160405280600c81526020017f4e6f7420417070726f76656400000000000000000000000000000000000000008152506108de565b6040518060400160405280600881526020017f417070726f7665640000000000000000000000000000000000000000000000008152505b600060028111156108f2576108f16133df565b5b600660008e815260200190815260200160002060050160019054906101000a900460ff166002811115610928576109276133df565b5b14610968576040518060400160405280600d81526020017f4e6f7420417661696c61626c650000000000000000000000000000000000000081525061099f565b6040518060400160405280600981526020017f417661696c61626c6500000000000000000000000000000000000000000000008152505b600660008e815260200190815260200160002060050160029054906101000a900473ffffffffffffffffffffffffffffffffffffffff16600660008f815260200190815260200160002060050160169054906101000a900460ff16858054610a0690613dd2565b80601f0160208091040260200160405190810160405280929190818152602001828054610a3290613dd2565b8015610a7f5780601f10610a5457610100808354040283529160200191610a7f565b820191906000526020600020905b815481529060010190602001808311610a6257829003601f168201915b505050505095509650965096509650965096509650919395979092949650565b60008073ffffffffffffffffffffffffffffffffffffffff166006600088815260200190815260200160002060000160009054906101000a900473ffffffffffffffffffffffffffffffffffffffff1673ffffffffffffffffffffffffffffffffffffffff1614610b45576040517f08c379a0000000000000000000000000000000000000000000000000000000008152600401610b3c90613e4f565b60405180910390fd5b6040518061016001604052808b73ffffffffffffffffffffffffffffffffffffffff1681526020018a8152602001898152602001888152602001878152602001866002811115610b9857610b976133df565b5b8152602001856002811115610bb057610baf6133df565b5b8152602001600073ffffffffffffffffffffffffffffffffffffffff16815260200160006003811115610be657610be56133df565b5b8152602001848152602001838152506006600088815260200190815260200160002060008201518160000160006101000a81548173ffffffffffffffffffffffffffffffffffffffff021916908373ffffffffffffffffffffffffffffffffffffffff1602179055506020820151816001019081610c64919061401b565b506040820151816002019081610c7a919061401b565b50606082015181600301556080820151816004015560a08201518160050160006101000a81548160ff02191690836002811115610cba57610cb96133df565b5b021790555060c08201518160050160016101000a81548160ff02191690836002811115610cea57610ce96133df565b5b021790555060e08201518160050160026101000a81548173ffffffffffffffffffffffffffffffffffffffff021916908373ffffffffffffffffffffffffffffffffffffffff1602179055506101008201518160050160166101000a81548160ff02191690836003811115610d6257610d616133df565b5b0217905550610120820151816006019081610d7d919061401b565b50610140820151816007019081610d94919061401b565b50905050600560008b73ffffffffffffffffffffffffffffffffffffffff1673ffffffffffffffffffffffffffffffffffffffff1681526020019081526020016000208690806001815401808255809150506001900390600052602060002001600090919091909150556002869080600181540180825580915050600190039060005260206000200160009091909190915055600460008b73ffffffffffffffffffffffffffffffffffffffff1673ffffffffffffffffffffffffffffffffffffffff1681526020019081526020016000206000018690806001815401808255809150506001900390600052602060002001600090919091909150557fcb4990052f95f6057496d19524f6c3163f50af9f33f2c15b092928e03414323e868b604051610ec1929190614142565b60405180910390a1600190509998505050505050505050565b6000600460008873ffffffffffffffffffffffffffffffffffffffff1673ffffffffffffffffffffffffffffffffffffffff16815260200190815260200160002060070160009054906101000a900460ff1615610f6c576040517f08c379a0000000000000000000000000000000000000000000000000000000008152600401610f63906141b7565b60405180910390fd5b604051806101000160405280600067ffffffffffffffff811115610f9357610f92613172565b5b604051908082528060200260200182016040528015610fc15781602001602082028036833780820191505090505b5081526020018873ffffffffffffffffffffffffffffffffffffffff16815260200187815260200186815260200185815260200184815260200183815260200160011515815250600460008973ffffffffffffffffffffffffffffffffffffffff1673ffffffffffffffffffffffffffffffffffffffff1681526020019081526020016000206000820151816000019080519060200190611063929190612e7e565b5060208201518160010160006101000a81548173ffffffffffffffffffffffffffffffffffffffff021916908373ffffffffffffffffffffffffffffffffffffffff16021790555060408201518160020190816110c0919061401b565b506060820151816003015560808201518160040190816110e0919061401b565b5060a0820151816005015560c0820151816006019081611100919061401b565b5060e08201518160070160006101000a81548160ff0219169083151502179055509050506001879080600181540180825580915050600190039060005260206000200160009091909190916101000a81548173ffffffffffffffffffffffffffffffffffffffff021916908373ffffffffffffffffffffffffffffffffffffffff160217905550600190509695505050505050565b60008060079050606481846111aa9190614206565b6111b49190614248565b915050919050565b600560205281600052604060002081815481106111d857600080fd5b90600052602060002001600091509150505481565b6000600360009054906101000a900473ffffffffffffffffffffffffffffffffffffffff1673ffffffffffffffffffffffffffffffffffffffff163373ffffffffffffffffffffffffffffffffffffffff161461127f576040517f08c379a0000000000000000000000000000000000000000000000000000000008152600401611276906142c5565b60405180910390fd5b600073ffffffffffffffffffffffffffffffffffffffff166006600086815260200190815260200160002060000160009054906101000a900473ffffffffffffffffffffffffffffffffffffffff1673ffffffffffffffffffffffffffffffffffffffff1603611324576040517f08c379a000000000000000000000000000000000000000000000000000000000815260040161131b90614331565b60405180910390fd5b826006600086815260200190815260200160002060050160006101000a81548160ff0219169083600281111561135d5761135c6133df565b5b0217905550816006600086815260200190815260200160002060050160016101000a81548160ff0219169083600281111561139b5761139a6133df565b5b0217905550600190509392505050565b6000606060006060600060606000600460008973ffffffffffffffffffffffffffffffffffffffff1673ffffffffffffffffffffffffffffffffffffffff16815260200190815260200160002060070160009054906101000a900460ff16611448576040517f08c379a000000000000000000000000000000000000000000000000000000000815260040161143f9061439d565b60405180910390fd5b600460008973ffffffffffffffffffffffffffffffffffffffff1673ffffffffffffffffffffffffffffffffffffffff16815260200190815260200160002060010160009054906101000a900473ffffffffffffffffffffffffffffffffffffffff16600460008a73ffffffffffffffffffffffffffffffffffffffff1673ffffffffffffffffffffffffffffffffffffffff168152602001908152602001600020600201600460008b73ffffffffffffffffffffffffffffffffffffffff1673ffffffffffffffffffffffffffffffffffffffff16815260200190815260200160002060030154600460008c73ffffffffffffffffffffffffffffffffffffffff1673ffffffffffffffffffffffffffffffffffffffff168152602001908152602001600020600401600460008d73ffffffffffffffffffffffffffffffffffffffff1673ffffffffffffffffffffffffffffffffffffffff16815260200190815260200160002060050154600460008e73ffffffffffffffffffffffffffffffffffffffff1673ffffffffffffffffffffffffffffffffffffffff168152602001908152602001600020600601600460008f73ffffffffffffffffffffffffffffffffffffffff1673ffffffffffffffffffffffffffffffffffffffff16815260200190815260200160002060070160009054906101000a900460ff1685805461165390613dd2565b80601f016020809104026020016040519081016040528092919081815260200182805461167f90613dd2565b80156116cc5780601f106116a1576101008083540402835291602001916116cc565b820191906000526020600020905b8154815290600101906020018083116116af57829003601f168201915b505050505095508380546116df90613dd2565b80601f016020809104026020016040519081016040528092919081815260200182805461170b90613dd2565b80156117585780601f1061172d57610100808354040283529160200191611758565b820191906000526020600020905b81548152906001019060200180831161173b57829003601f168201915b5050505050935081805461176b90613dd2565b80601f016020809104026020016040519081016040528092919081815260200182805461179790613dd2565b80156117e45780601f106117b9576101008083540402835291602001916117e4565b820191906000526020600020905b8154815290600101906020018083116117c757829003601f168201915b505050505091509650965096509650965096509650919395979092949650565b600380811115611817576118166133df565b5b6006600083815260200190815260200160002060050160169054906101000a900460ff16600381111561184d5761184c6133df565b5b1461188d576040517f08c379a000000000000000000000000000000000000000000000000000000000815260040161188490614409565b60405180910390fd5b670de0b6b3a764000060066000838152602001908152602001600020600301546118b79190614206565b34146118f8576040517f08c379a00000000000000000000000000000000000000000000000000000000081526004016118ef90614475565b60405180910390fd5b600061192c670de0b6b3a764000060066000858152602001908152602001600020600301546119279190614206565b611195565b905060008054906101000a900473ffffffffffffffffffffffffffffffffffffffff1673ffffffffffffffffffffffffffffffffffffffff166108fc829081150290604051600060405180830381858888f19350505050158015611994573d6000803e3d6000fd5b506006600083815260200190815260200160002060000160009054906101000a900473ffffffffffffffffffffffffffffffffffffffff1673ffffffffffffffffffffffffffffffffffffffff166108fc82346119f19190614495565b9081150290604051600060405180830381858888f19350505050158015611a1c573d6000803e3d6000fd5b50611a5d6006600084815260200190815260200160002060000160009054906101000a900473ffffffffffffffffffffffffffffffffffffffff1683612c42565b336006600084815260200190815260200160002060000160006101000a81548173ffffffffffffffffffffffffffffffffffffffff021916908373ffffffffffffffffffffffffffffffffffffffff16021790555060006006600084815260200190815260200160002060050160006101000a81548160ff02191690836002811115611aec57611aeb6133df565b5b021790555060026006600084815260200190815260200160002060050160016101000a81548160ff02191690836002811115611b2b57611b2a6133df565b5b021790555060006006600084815260200190815260200160002060050160026101000a81548173ffffffffffffffffffffffffffffffffffffffff021916908373ffffffffffffffffffffffffffffffffffffffff16021790555060006006600084815260200190815260200160002060050160166101000a81548160ff02191690836003811115611bc057611bbf6133df565b5b0217905550600460003373ffffffffffffffffffffffffffffffffffffffff1673ffffffffffffffffffffffffffffffffffffffff1681526020019081526020016000206000018290806001815401808255809150506001900390600052602060002001600090919091909150555050565b60006002811115611c4657611c456133df565b5b6006600083815260200190815260200160002060050160019054906101000a900460ff166002811115611c7c57611c7b6133df565b5b14611cbc576040517f08c379a0000000000000000000000000000000000000000000000000000000008152600401611cb390614515565b60405180910390fd5b336006600083815260200190815260200160002060050160026101000a81548173ffffffffffffffffffffffffffffffffffffffff021916908373ffffffffffffffffffffffffffffffffffffffff16021790555060016006600083815260200190815260200160002060050160016101000a81548160ff02191690836002811115611d4b57611d4a6133df565b5b021790555060016006600083815260200190815260200160002060050160166101000a81548160ff02191690836003811115611d8a57611d896133df565b5b021790555050565b6060600460008373ffffffffffffffffffffffffffffffffffffffff1673ffffffffffffffffffffffffffffffffffffffff168152602001908152602001600020600001805480602002602001604051908101604052809291908181526020018280548015611e2057602002820191906000526020600020905b815481526020019060010190808311611e0c575b50505050509050919050565b600360009054906101000a900473ffffffffffffffffffffffffffffffffffffffff1681565b60046020528060005260406000206000915090508060010160009054906101000a900473ffffffffffffffffffffffffffffffffffffffff1690806002018054611e9b90613dd2565b80601f0160208091040260200160405190810160405280929190818152602001828054611ec790613dd2565b8015611f145780601f10611ee957610100808354040283529160200191611f14565b820191906000526020600020905b815481529060010190602001808311611ef757829003601f168201915b505050505090806003015490806004018054611f2f90613dd2565b80601f0160208091040260200160405190810160405280929190818152602001828054611f5b90613dd2565b8015611fa85780601f10611f7d57610100808354040283529160200191611fa8565b820191906000526020600020905b815481529060010190602001808311611f8b57829003601f168201915b505050505090806005015490806006018054611fc390613dd2565b80601f0160208091040260200160405190810160405280929190818152602001828054611fef90613dd2565b801561203c5780601f106120115761010080835404028352916020019161203c565b820191906000526020600020905b81548152906001019060200180831161201f57829003601f168201915b5050505050908060070160009054906101000a900460ff16905087565b3373ffffffffffffffffffffffffffffffffffffffff166006600083815260200190815260200160002060000160009054906101000a900473ffffffffffffffffffffffffffffffffffffffff1673ffffffffffffffffffffffffffffffffffffffff16146120fd576040517f08c379a00000000000000000000000000000000000000000000000000000000081526004016120f490614581565b60405180910390fd5b60006006600083815260200190815260200160002060050160016101000a81548160ff02191690836002811115612137576121366133df565b5b021790555050565b612147612ecb565b60066000838152602001908152602001600020604051806101600160405290816000820160009054906101000a900473ffffffffffffffffffffffffffffffffffffffff1673ffffffffffffffffffffffffffffffffffffffff1673ffffffffffffffffffffffffffffffffffffffff1681526020016001820180546121cc90613dd2565b80601f01602080910402602001604051908101604052809291908181526020018280546121f890613dd2565b80156122455780601f1061221a57610100808354040283529160200191612245565b820191906000526020600020905b81548152906001019060200180831161222857829003601f168201915b5050505050815260200160028201805461225e90613dd2565b80601f016020809104026020016040519081016040528092919081815260200182805461228a90613dd2565b80156122d75780601f106122ac576101008083540402835291602001916122d7565b820191906000526020600020905b8154815290600101906020018083116122ba57829003601f168201915b5050505050815260200160038201548152602001600482015481526020016005820160009054906101000a900460ff166002811115612319576123186133df565b5b600281111561232b5761232a6133df565b5b81526020016005820160019054906101000a900460ff166002811115612354576123536133df565b5b6002811115612366576123656133df565b5b81526020016005820160029054906101000a900473ffffffffffffffffffffffffffffffffffffffff1673ffffffffffffffffffffffffffffffffffffffff1673ffffffffffffffffffffffffffffffffffffffff1681526020016005820160169054906101000a900460ff1660038111156123e5576123e46133df565b5b60038111156123f7576123f66133df565b5b815260200160068201805461240b90613dd2565b80601f016020809104026020016040519081016040528092919081815260200182805461243790613dd2565b80156124845780601f1061245957610100808354040283529160200191612484565b820191906000526020600020905b81548152906001019060200180831161246757829003601f168201915b5050505050815260200160078201805461249d90613dd2565b80601f01602080910402602001604051908101604052809291908181526020018280546124c990613dd2565b80156125165780601f106124eb57610100808354040283529160200191612516565b820191906000526020600020905b8154815290600101906020018083116124f957829003601f168201915b5050505050815250509050919050565b6002818154811061253657600080fd5b906000526020600020016000915090505481565b60008054906101000a900473ffffffffffffffffffffffffffffffffffffffff1681565b60066020528060005260406000206000915090508060000160009054906101000a900473ffffffffffffffffffffffffffffffffffffffff16908060010180546125b790613dd2565b80601f01602080910402602001604051908101604052809291908181526020018280546125e390613dd2565b80156126305780601f1061260557610100808354040283529160200191612630565b820191906000526020600020905b81548152906001019060200180831161261357829003601f168201915b50505050509080600201805461264590613dd2565b80601f016020809104026020016040519081016040528092919081815260200182805461267190613dd2565b80156126be5780601f10612693576101008083540402835291602001916126be565b820191906000526020600020905b8154815290600101906020018083116126a157829003601f168201915b5050505050908060030154908060040154908060050160009054906101000a900460ff16908060050160019054906101000a900460ff16908060050160029054906101000a900473ffffffffffffffffffffffffffffffffffffffff16908060050160169054906101000a900460ff169080600601805461273e90613dd2565b80601f016020809104026020016040519081016040528092919081815260200182805461276a90613dd2565b80156127b75780601f1061278c576101008083540402835291602001916127b7565b820191906000526020600020905b81548152906001019060200180831161279a57829003601f168201915b5050505050908060070180546127cc90613dd2565b80601f01602080910402602001604051908101604052809291908181526020018280546127f890613dd2565b80156128455780601f1061281a57610100808354040283529160200191612845565b820191906000526020600020905b81548152906001019060200180831161282857829003601f168201915b505050505090508b565b600080600090505b600460008473ffffffffffffffffffffffffffffffffffffffff1673ffffffffffffffffffffffffffffffffffffffff1681526020019081526020016000206000018054905081101561291f5783600460008573ffffffffffffffffffffffffffffffffffffffff1673ffffffffffffffffffffffffffffffffffffffff16815260200190815260200160002060000182815481106128f9576128f86145a1565b5b906000526020600020015403612912578091505061295b565b8080600101915050612857565b506040517f08c379a00000000000000000000000000000000000000000000000000000000081526004016129529061461c565b60405180910390fd5b92915050565b3373ffffffffffffffffffffffffffffffffffffffff166006600084815260200190815260200160002060000160009054906101000a900473ffffffffffffffffffffffffffffffffffffffff1673ffffffffffffffffffffffffffffffffffffffff1614612a05576040517f08c379a00000000000000000000000000000000000000000000000000000000081526004016129fc90614581565b60405180910390fd5b60016003811115612a1957612a186133df565b5b6006600084815260200190815260200160002060050160169054906101000a900460ff166003811115612a4f57612a4e6133df565b5b14612a8f576040517f08c379a0000000000000000000000000000000000000000000000000000000008152600401612a8690614688565b60405180910390fd5b806006600084815260200190815260200160002060050160166101000a81548160ff02191690836003811115612ac857612ac76133df565b5b021790555060026003811115612ae157612ae06133df565b5b816003811115612af457612af36133df565b5b03612bd25760006006600084815260200190815260200160002060050160026101000a81548173ffffffffffffffffffffffffffffffffffffffff021916908373ffffffffffffffffffffffffffffffffffffffff16021790555060006006600084815260200190815260200160002060050160166101000a81548160ff02191690836003811115612b8957612b886133df565b5b021790555060006006600084815260200190815260200160002060050160016101000a81548160ff02191690836002811115612bc857612bc76133df565b5b0217905550612c3e565b600380811115612be557612be46133df565b5b816003811115612bf857612bf76133df565b5b03612c3d5760026006600084815260200190815260200160002060050160016101000a81548160ff02191690836002811115612c3757612c366133df565b5b02179055505b5b5050565b6000612c4e828461284f565b9050600460008473ffffffffffffffffffffffffffffffffffffffff1673ffffffffffffffffffffffffffffffffffffffff168152602001908152602001600020600001805490508110612cd7576040517f08c379a0000000000000000000000000000000000000000000000000000000008152600401612cce9061461c565b60405180910390fd5b60008190505b6001600460008673ffffffffffffffffffffffffffffffffffffffff1673ffffffffffffffffffffffffffffffffffffffff16815260200190815260200160002060000180549050612d2f9190614495565b811015612e1057600460008573ffffffffffffffffffffffffffffffffffffffff1673ffffffffffffffffffffffffffffffffffffffff168152602001908152602001600020600001600182612d8591906146a8565b81548110612d9657612d956145a1565b5b9060005260206000200154600460008673ffffffffffffffffffffffffffffffffffffffff1673ffffffffffffffffffffffffffffffffffffffff1681526020019081526020016000206000018281548110612df557612df46145a1565b5b90600052602060002001819055508080600101915050612cdd565b50600460008473ffffffffffffffffffffffffffffffffffffffff1673ffffffffffffffffffffffffffffffffffffffff168152602001908152602001600020600001805480612e6357612e626146dc565b5b60019003818190600052602060002001600090559055505050565b828054828255906000526020600020908101928215612eba579160200282015b82811115612eb9578251825591602001919060010190612e9e565b5b509050612ec79190612f87565b5090565b604051806101600160405280600073ffffffffffffffffffffffffffffffffffffffff1681526020016060815260200160608152602001600081526020016000815260200160006002811115612f2457612f236133df565b5b815260200160006002811115612f3d57612f3c6133df565b5b8152602001600073ffffffffffffffffffffffffffffffffffffffff16815260200160006003811115612f7357612f726133df565b5b815260200160608152602001606081525090565b5b80821115612fa0576000816000905550600101612f88565b5090565b6000604051905090565b600080fd5b600080fd5b6000819050919050565b612fcb81612fb8565b8114612fd657600080fd5b50565b600081359050612fe881612fc2565b92915050565b60006020828403121561300457613003612fae565b5b600061301284828501612fd9565b91505092915050565b600073ffffffffffffffffffffffffffffffffffffffff82169050919050565b60006130468261301b565b9050919050565b6130568161303b565b82525050565b6000602082019050613071600083018461304d565b92915050565b600081519050919050565b600082825260208201905092915050565b6000819050602082019050919050565b6130ac81612fb8565b82525050565b60006130be83836130a3565b60208301905092915050565b6000602082019050919050565b60006130e282613077565b6130ec8185613082565b93506130f783613093565b8060005b8381101561312857815161310f88826130b2565b975061311a836130ca565b9250506001810190506130fb565b5085935050505092915050565b6000602082019050818103600083015261314f81846130d7565b905092915050565b600080fd5b600080fd5b6000601f19601f8301169050919050565b7f4e487b7100000000000000000000000000000000000000000000000000000000600052604160045260246000fd5b6131aa82613161565b810181811067ffffffffffffffff821117156131c9576131c8613172565b5b80604052505050565b60006131dc612fa4565b90506131e882826131a1565b919050565b600067ffffffffffffffff82111561320857613207613172565b5b61321182613161565b9050602081019050919050565b82818337600083830152505050565b600061324061323b846131ed565b6131d2565b90508281526020810184848401111561325c5761325b61315c565b5b61326784828561321e565b509392505050565b600082601f83011261328457613283613157565b5b813561329484826020860161322d565b91505092915050565b600080604083850312156132b4576132b3612fae565b5b600083013567ffffffffffffffff8111156132d2576132d1612fb3565b5b6132de8582860161326f565b925050602083013567ffffffffffffffff8111156132ff576132fe612fb3565b5b61330b8582860161326f565b9150509250929050565b61331e81612fb8565b82525050565b60006020820190506133396000830184613315565b92915050565b600061334a8261301b565b9050919050565b61335a8161333f565b82525050565b600081519050919050565b600082825260208201905092915050565b60005b8381101561339a57808201518184015260208101905061337f565b60008484015250505050565b60006133b182613360565b6133bb818561336b565b93506133cb81856020860161337c565b6133d481613161565b840191505092915050565b7f4e487b7100000000000000000000000000000000000000000000000000000000600052602160045260246000fd5b6004811061341f5761341e6133df565b5b50565b60008190506134308261340e565b919050565b600061344082613422565b9050919050565b61345081613435565b82525050565b600060e08201905061346b600083018a613351565b818103602083015261347d81896133a6565b905061348c6040830188613315565b818103606083015261349e81876133a6565b905081810360808301526134b281866133a6565b90506134c160a083018561304d565b6134ce60c0830184613447565b98975050505050505050565b6134e38161333f565b81146134ee57600080fd5b50565b600081359050613500816134da565b92915050565b6003811061351357600080fd5b50565b60008135905061352581613506565b92915050565b6003811061353857600080fd5b50565b60008135905061354a8161352b565b92915050565b60008060008060008060008060006101208a8c03121561357357613572612fae565b5b60006135818c828d016134f1565b99505060208a013567ffffffffffffffff8111156135a2576135a1612fb3565b5b6135ae8c828d0161326f565b98505060408a013567ffffffffffffffff8111156135cf576135ce612fb3565b5b6135db8c828d0161326f565b97505060606135ec8c828d01612fd9565b96505060806135fd8c828d01612fd9565b95505060a061360e8c828d01613516565b94505060c061361f8c828d0161353b565b93505060e08a013567ffffffffffffffff8111156136405761363f612fb3565b5b61364c8c828d0161326f565b9250506101008a013567ffffffffffffffff81111561366e5761366d612fb3565b5b61367a8c828d0161326f565b9150509295985092959850929598565b60008115159050919050565b61369f8161368a565b82525050565b60006020820190506136ba6000830184613696565b92915050565b6136c98161303b565b81146136d457600080fd5b50565b6000813590506136e6816136c0565b92915050565b60008060008060008060c0878903121561370957613708612fae565b5b600061371789828a016136d7565b965050602087013567ffffffffffffffff81111561373857613737612fb3565b5b61374489828a0161326f565b955050604061375589828a01612fd9565b945050606087013567ffffffffffffffff81111561377657613775612fb3565b5b61378289828a0161326f565b935050608061379389828a01612fd9565b92505060a087013567ffffffffffffffff8111156137b4576137b3612fb3565b5b6137c089828a0161326f565b9150509295509295509295565b600080604083850312156137e4576137e3612fae565b5b60006137f2858286016136d7565b925050602061380385828601612fd9565b9150509250929050565b60008060006060848603121561382657613825612fae565b5b600061383486828701612fd9565b935050602061384586828701613516565b92505060406138568682870161353b565b9150509250925092565b60006020828403121561387657613875612fae565b5b6000613884848285016136d7565b91505092915050565b600060e0820190506138a2600083018a61304d565b81810360208301526138b481896133a6565b90506138c36040830188613315565b81810360608301526138d581876133a6565b90506138e46080830186613315565b81810360a08301526138f681856133a6565b905061390560c0830184613696565b98975050505050505050565b61391a8161333f565b82525050565b600082825260208201905092915050565b600061393c82613360565b6139468185613920565b935061395681856020860161337c565b61395f81613161565b840191505092915050565b6003811061397b5761397a6133df565b5b50565b600081905061398c8261396a565b919050565b600061399c8261397e565b9050919050565b6139ac81613991565b82525050565b600381106139c3576139c26133df565b5b50565b60008190506139d4826139b2565b919050565b60006139e4826139c6565b9050919050565b6139f4816139d9565b82525050565b613a038161303b565b82525050565b613a1281613435565b82525050565b600061016083016000830151613a316000860182613911565b5060208301518482036020860152613a498282613931565b91505060408301518482036040860152613a638282613931565b9150506060830151613a7860608601826130a3565b506080830151613a8b60808601826130a3565b5060a0830151613a9e60a08601826139a3565b5060c0830151613ab160c08601826139eb565b5060e0830151613ac460e08601826139fa565b50610100830151613ad9610100860182613a09565b50610120830151848203610120860152613af38282613931565b915050610140830151848203610140860152613b0f8282613931565b9150508091505092915050565b60006020820190508181036000830152613b368184613a18565b905092915050565b6000602082019050613b536000830184613351565b92915050565b613b6281613991565b82525050565b613b71816139d9565b82525050565b600061016082019050613b8d600083018e613351565b8181036020830152613b9f818d6133a6565b90508181036040830152613bb3818c6133a6565b9050613bc2606083018b613315565b613bcf608083018a613315565b613bdc60a0830189613b59565b613be960c0830188613b68565b613bf660e083018761304d565b613c04610100830186613447565b818103610120830152613c1781856133a6565b9050818103610140830152613c2c81846133a6565b90509c9b505050505050505050505050565b60008060408385031215613c5557613c54612fae565b5b6000613c6385828601612fd9565b9250506020613c74858286016136d7565b9150509250929050565b60048110613c8b57600080fd5b50565b600081359050613c9d81613c7e565b92915050565b60008060408385031215613cba57613cb9612fae565b5b6000613cc885828601612fd9565b9250506020613cd985828601613c8e565b9150509250929050565b600081905092915050565b6000613cf982613360565b613d038185613ce3565b9350613d1381856020860161337c565b80840191505092915050565b6000613d2b8285613cee565b9150613d378284613cee565b91508190509392505050565b7f4e487b7100000000000000000000000000000000000000000000000000000000600052601260045260246000fd5b6000613d7d82612fb8565b9150613d8883612fb8565b925082613d9857613d97613d43565b5b828206905092915050565b7f4e487b7100000000000000000000000000000000000000000000000000000000600052602260045260246000fd5b60006002820490506001821680613dea57607f821691505b602082108103613dfd57613dfc613da3565b5b50919050565b7f4c616e6420616c72656164792072656769737465726564000000000000000000600082015250565b6000613e3960178361336b565b9150613e4482613e03565b602082019050919050565b60006020820190508181036000830152613e6881613e2c565b9050919050565b60008190508160005260206000209050919050565b60006020601f8301049050919050565b600082821b905092915050565b600060088302613ed17fffffffffffffffffffffffffffffffffffffffffffffffffffffffffffffffff82613e94565b613edb8683613e94565b95508019841693508086168417925050509392505050565b6000819050919050565b6000613f18613f13613f0e84612fb8565b613ef3565b612fb8565b9050919050565b6000819050919050565b613f3283613efd565b613f46613f3e82613f1f565b848454613ea1565b825550505050565b600090565b613f5b613f4e565b613f66818484613f29565b505050565b5b81811015613f8a57613f7f600082613f53565b600181019050613f6c565b5050565b601f821115613fcf57613fa081613e6f565b613fa984613e84565b81016020851015613fb8578190505b613fcc613fc485613e84565b830182613f6b565b50505b505050565b600082821c905092915050565b6000613ff260001984600802613fd4565b1980831691505092915050565b600061400b8383613fe1565b9150826002028217905092915050565b61402482613360565b67ffffffffffffffff81111561403d5761403c613172565b5b6140478254613dd2565b614052828285613f8e565b600060209050601f8311600181146140855760008415614073578287015190505b61407d8582613fff565b8655506140e5565b601f19841661409386613e6f565b60005b828110156140bb57848901518255600182019150602085019450602081019050614096565b868310156140d857848901516140d4601f891682613fe1565b8355505b6001600288020188555050505b505050505050565b60006141086141036140fe8461301b565b613ef3565b61301b565b9050919050565b600061411a826140ed565b9050919050565b600061412c8261410f565b9050919050565b61413c81614121565b82525050565b60006040820190506141576000830185613315565b6141646020830184614133565b9392505050565b7f5573657220616c72656164792065786973747300000000000000000000000000600082015250565b60006141a160138361336b565b91506141ac8261416b565b602082019050919050565b600060208201905081810360008301526141d081614194565b9050919050565b7f4e487b7100000000000000000000000000000000000000000000000000000000600052601160045260246000fd5b600061421182612fb8565b915061421c83612fb8565b925082820261422a81612fb8565b91508282048414831517614241576142406141d7565b5b5092915050565b600061425382612fb8565b915061425e83612fb8565b92508261426e5761426d613d43565b5b828204905092915050565b7f4e6f7420617574686f72697a6564000000000000000000000000000000000000600082015250565b60006142af600e8361336b565b91506142ba82614279565b602082019050919050565b600060208201905081810360008301526142de816142a2565b9050919050565b7f4c616e64206e6f74207265676973746572656400000000000000000000000000600082015250565b600061431b60138361336b565b9150614326826142e5565b602082019050919050565b6000602082019050818103600083015261434a8161430e565b9050919050565b7f5573657220646f6573206e6f7420657869737400000000000000000000000000600082015250565b600061438760138361336b565b915061439282614351565b602082019050919050565b600060208201905081810360008301526143b68161437a565b9050919050565b7f52657175657374206e6f7420617070726f766564000000000000000000000000600082015250565b60006143f360148361336b565b91506143fe826143bd565b602082019050919050565b60006020820190508181036000830152614422816143e6565b9050919050565b7f496e636f7272656374207061796d656e7420616d6f756e740000000000000000600082015250565b600061445f60188361336b565b915061446a82614429565b602082019050919050565b6000602082019050818103600083015261448e81614452565b9050919050565b60006144a082612fb8565b91506144ab83612fb8565b92508282039050818111156144c3576144c26141d7565b5b92915050565b7f4c616e64206e6f7420617661696c61626c650000000000000000000000000000600082015250565b60006144ff60128361336b565b915061450a826144c9565b602082019050919050565b6000602082019050818103600083015261452e816144f2565b9050919050565b7f4e6f7420746865206f776e657200000000000000000000000000000000000000600082015250565b600061456b600d8361336b565b915061457682614535565b602082019050919050565b6000602082019050818103600083015261459a8161455e565b9050919050565b7f4e487b7100000000000000000000000000000000000000000000000000000000600052603260045260246000fd5b7f4173736574206e6f7420666f756e640000000000000000000000000000000000600082015250565b6000614606600f8361336b565b9150614611826145d0565b602082019050919050565b60006020820190508181036000830152614635816145f9565b9050919050565b7f4e6f2070656e64696e6720726571756573740000000000000000000000000000600082015250565b600061467260128361336b565b915061467d8261463c565b602082019050919050565b600060208201905081810360008301526146a181614665565b9050919050565b60006146b382612fb8565b91506146be83612fb8565b92508282019050808211156146d6576146d56141d7565b5b92915050565b7f4e487b7100000000000000000000000000000000000000000000000000000000600052603160045260246000fdfea2646970667358221220feafc90fae252c74dc5aae5c604156699b81afa18ae1f4d9b8637acf9d9ad20864736f6c634300081c0033",
  "linkReferences": {},
  "deployedLinkReferences": {}
}